:020000040800F2
:10000000F80500204901000869240008432200087F
:1000100065240008B5010008612E000800000000FA
:10002000000000000000000000000000152500088E
:10003000F5010008000000006D24000817250008E5
:100040006301000863010008630100086301000800
:1000500063010008630100086301000863010008F0
:1000600063010008630100086301000863010008E0
:1000700063010008630100086301000863010008D0
:10008000B90100086301000863010008630100086A
:1000900063010008630100086301000863010008B0
:1000A00063010008630100086301000863010008A0
:1000B0008925000863010008630100086301000846
:1000C0006301000863010008630100086301000880
:1000D00063010008412E0008512E0008630100084A
:1000E0006301000863010008630100086301000860
:1000F0006301000863010008630100086301000850
:10010000630100086301000863010008630100083F
:10011000630100086301000863010008630100082F
:10012000630100086301000863010008630100081F
:10013000DFF810D000F02CF800480047CD3100085F
:10014000AFF30080F80500200648804706480047C6
:10015000FEE7FEE7FEE7FEE7FEE7FEE7FEE7FEE777
:10016000FEE7FEE78525000831010008D2B201E074
:1001700000F8012B491EFBD270470022F6E710B5AC
:1001800013460A4604461946FFF7F0FF204610BD05
:10019000064C074D06E0E06840F0010394E80700D4
:1001A00098471034AC42F6D3FFF7C6FFDC320008A4
:1001B000FC32000800BFFEE710B5024800F028F945
:1001C00010BD0000B001002030B590F8405001246F
:1001D000AC40C56B6C60046863604468102C04D14B
:1001E0000468A2600468E16003E00468A160046838
:1001F000E26030BD704772B600BFFEE7034840685A
:1002000040F002000149486070470000002004E00F
:100210000146002291F82100022808D004208863BA
:1002200000BF002081F8200000BF0120704708684F
:10023000006820F00E000B6818600868006820F065
:1002400001000B68186091F8403001209840CB6B9A
:100250005860012081F8210000BF002081F82000B3
:1002600000BF1046E2E7000070B50446002594F890
:100270002100022803D00420A0630125C1E02068EA
:10028000006820F00E00216808602068006820F0F7
:100290000100216808605C492068884252D95A49A7
:1002A00078392068884201D1012047E056496439F5
:1002B0002068884201D1102040E05349503920681D
:1002C000884201D1801539E04F493C392068884285
:1002D00001D1801432E04C4928392068884202D18B
:1002E0004FF480302AE0484914392068884202D10E
:1002F0004FF4801022E044492068884201D1400434
:100300001CE042492068884201D1012016E03F49A3
:1003100014312068884201D110200FE03B49283178
:100320002068884201D1801508E038493C312068B6
:10033000884201D1801401E04FF480303349091F15
:10034000086051E0304978392068884201D10120A5
:1003500047E02D4964392068884201D1102040E0EF
:10036000294950392068884201D1801539E0264951
:100370003C392068884201D1801432E02249283972
:100380002068884202D14FF480302AE01E49143997
:100390002068884202D14FF4801022E01A49206878
:1003A000884201D140041CE018492068884201D1EC
:1003B000012016E0154914312068884201D110202F
:1003C0000FE0124928312068884201D1801508E0E9
:1003D0000E493C312068884201D1801401E04FF47D
:1003E0008030094980394860012084F8210000BF2D
:1003F000002084F8200000BF606B10B12046616BC4
:100400008847284670BD0000800002400804024072
:1004100070B50446E06B05682068066894F84010E3
:10042000042088402840002875D006F004000028E9
:10043000FAD02068006800F0200028B92068006821
:1004400020F0040021680860D5492068884254D90A
:10045000D34978392068884201D1042049E0D04945
:1004600064392068884201D1402042E0CC495039AB
:100470002068884201D100153BE0C9493C39206819
:10048000884202D14FF4804033E0C54928392068C2
:10049000884202D14FF480202BE0C14914392068F2
:1004A000884202D14FF4800023E0BD492068884291
:1004B00001D1C0041DE0BB492068884201D104205D
:1004C00017E0B84914312068884201D1402010E07B
:1004D000B44928312068884201D1001509E0B149AA
:1004E0003C312068884202D14FF4804001E04FF453
:1004F0008020AC49091F086054E0A9497839206878
:10050000884201D104204AE0A54964392068884224
:1005100002D1402043E04CE0A14950392068884294
:1005200001D100153BE09E493C392068884202D148
:100530004FF4804033E09A4928392068884202D13C
:100540004FF480202BE0964914392068884202D16C
:100550004FF4800023E092492068884201D1C00412
:100560001DE090492068884201D1042017E08D49A0
:1005700014312068884201D1402010E08949283197
:100580002068884201D1001509E086493C31206885
:10059000884202D14FF4804001E04FF4802080492E
:1005A00080394860E06A002802D02046E16A884726
:1005B000F4E094F84010022088402840002871D0D0
:1005C00006F002000028FAD02068006800F0200041
:1005D00040B92068006820F00A0021680860012006
:1005E00084F821006E492068884254D96C497839D2
:1005F0002068884201D1022049E0694964392068B5
:10060000884201D1202042E0654950392068884263
:1006100001D140153BE062493C392068884202D153
:100620004FF4005033E05E4928392068884202D1F7
:100630004FF400302BE05A4914392068884202D127
:100640004FF4001023E056492068884201D180040D
:100650001DE054492068884201D1022017E0514929
:1006600014312068884201D1202010E04D49283102
:100670002068884201D1401509E04A493C31206890
:10068000884202D14FF4005001E04FF40030454958
:10069000091F086054E0424978392068884202D135
:1006A00002204AE057E03E4964392068884201D17F
:1006B000202042E03A4950392068884201D1401553
:1006C0003BE037493C392068884202D14FF4005062
:1006D00033E0334928392068884202D14FF4003092
:1006E0002BE02F4914392068884202D14FF40010C2
:1006F00023E02B492068884201D180041DE029496C
:100700002068884201D1022017E026491431206870
:10071000884201D1202010E02249283120688842F7
:1007200001D1401509E01F493C312068884202D1BF
:100730004FF4005001E04FF400301949803948600F
:1007400000BF002084F8200000BFA06A30B320461C
:10075000A16A884722E094F8401008208840284089
:10076000E0B106F00800C8B12068006820F00E0073
:100770002168086094F8401001208840E16B4860CF
:100780000120A06384F8210000BF002084F820002D
:1007900000BF206B10B12046216B884770BD000060
:1007A00080000240080402400146002209B90120ED
:1007B00070471E4B086898420BD21D4B0868C01A40
:1007C0001423B0FBF3F08000086419480838C863AC
:1007D0000AE0164B0868C01A1423B0FBF3F080003F
:1007E000086412480838C863022081F821000868AC
:1007F000026843F6F0708243D1E901031843CB68E5
:1008000018430B6918434B6918438B691843CB692C
:10081000184302430868026000208863012081F8C1
:100820002100002081F8200000BFC1E70804024039
:10083000080002402DE9F04104460D4616461F46C9
:100840004FF0000800BF94F82000012802D10220D8
:10085000BDE8F081012084F8200000BF94F8210059
:1008600001282CD1022084F821000020A0632068F8
:10087000006820F00100216808603B4632462946A6
:100880002046FFF7A1FCE06A30B12068006840F024
:100890000E00216808600BE02068006820F004006A
:1008A000216808602068006840F00A00216808603C
:1008B0002068006840F001002168086006E000BF81
:1008C000002084F8200000BF4FF002084046BFE738
:1008D0002DE9F847024600239C467BE14FF00108D2
:1008E00008FA03F4D1F8008008EA0400A0427DD1A0
:1008F000DFF8F4A2D1F80480A8EB0A09D0453AD079
:1009000014DCB8F1030F50D009DCB8F1000F31D07E
:10091000B8F1010F1CD0B8F1020F49D120E0B8F1B5
:10092000110F18D0B8F1120F42D11EE0B9F5881F8F
:1009300025D006DCB9F5803F20D0B9F5801F37D12E
:100940001AE0B9F5001F18D0B9F5041F30D117E02F
:10095000D1F80CC02DE0D1F80C8008F1040C28E08F
:10096000D1F80C8008F1080C23E0D1F80C8008F1D4
:100970000C0C1EE000BF00BF00BF00BF00BF00BFE7
:10098000D1F80880B8F1000F02D14FF0040C0BE051
:10099000D1F80880B8F1010F03D14FF0080C1461B1
:1009A00002E04FF0080C546103E04FF0000C00E04F
:1009B00000BF00BFFF2801D8904601E002F1040803
:1009C0004646FF2802D84FEA830803E0A3F108084F
:1009D0004FEA88084746D6F800804FF00F0909FA19
:1009E00007F928EA09080CFA07F900E07AE048EA72
:1009F0000908C6F80080D1F8048008F08058B8F1E2
:100A0000805F6FD100BFDFF8E481D8F8188048F02C
:100A10000108DFF8D891C9F81880C846D8F81880BE
:100A200008F00108CDF8008000BF00BF4FEAB938D8
:100A30004FEA930958F829504FEA83784FEA18791A
:100A40004FF00F0808FA09F825EA0805DFF8A08139
:100A5000424502D14FF0000824E0DFF8988142457A
:100A600002D14FF001081DE0DFF88C81424502D130
:100A70004FF0020816E0DFF88481424502D14FF0C2
:100A800003080FE0DFF87881424502D14FF00408F7
:100A900008E0DFF87081424502D14FF0050801E01F
:100AA0004FF006084FEA83794FEA197908FA09F8F6
:100AB00048EA0505DFF850814FEA930948F82950C4
:100AC000D1F8048008F48018B8F5801F0BD1DFF846
:100AD0003C81D8F8008048EA0008DFF83091C9F876
:100AE00000800AE075E0DFF82481D8F8008028EA69
:100AF0000008DFF81891C9F80080D1F8048008F4E4
:100B00000018B8F5001F0ED1DFF8008108F10408C5
:100B1000D8F8008048EA0008DFF8F09009F10409ED
:100B2000C9F800800DE0DFF8E48008F10408D8F887
:100B3000008028EA0008DFF8D49009F10409C9F818
:100B40000080D1F8048008F40038B8F5003F0ED1D9
:100B5000DFF8B880A8F10408D8F8008048EA000857
:100B6000DFF8A890A9F10409C9F800800DE0DFF8CA
:100B70009C80A8F10408D8F8008028EA0008DFF873
:100B80008C90A9F10409C9F80080D1F8048008F418
:100B90008038B8F5803F0ED1DFF87080A8F10808E2
:100BA000D8F8008048EA0008DFF86090A9F1080949
:100BB000C9F800800DE0DFF85480A8F10808D8F8E3
:100BC000008028EA0008DFF84490A9F10809C9F874
:100BD00000805B1CD1F8008028FA03F8B8F1000F00
:100BE0007FF47CAEBDE8F8870000111000100240D1
:100BF00000080140000C01400010014000140140B9
:100C000000180140001C0140080001400804014098
:100C10000AB1016101E00B040361704701480068FB
:100C2000704700006C000020034800680349097801
:100C300008440149086070476C00002074000020DF
:100C400010B50848006840F010000649086003200D
:100C500000F0A8F80F2000F007F800F02BF80020B3
:100C600010BD00000020024070B504460E48007818
:100C70004FF47A71B1FBF0F00C490968B1FBF0F563
:100C8000284600F0F9FB08B1012070BD102C07D2F6
:100C900000222146501E00F047F80548046001E09C
:100CA0000120F2E70020F0E7740000206800002037
:100CB0007000002008B500BF1148806940F00100B5
:100CC0000F4988610846806900F00100009000BF6C
:100CD00000BF00BF0846C06940F08050C8610846A8
:100CE000C06900F08050009000BF00BF00BF054900
:100CF000486820F0E06040F00070486000BF08BD28
:100D0000001002400000014001460846002809DBAF
:100D100000F01F0301229A4043099B0003F1E023E6
:100D2000C3F8002100BF70472DE9F05F80460D46F3
:100D30001646002702F0BAF8074639462A463346D7
:100D400001F00700C0F1070ABAF1040F02D94FF011
:100D5000040A01E0C0F1070AD14600F1040ABAF121
:100D6000070F02D24FF0000A01E0A0F1030AD446B7
:100D70004FF0010A0AFA09FAAAF1010A0AEA020A7C
:100D80000AFA0CFA4FF0010B0BFA0CFBABF1010B5A
:100D90000BEA030B4AEA0B042146404602F08EF8A8
:100DA000BDE8F09F00BF00F00702064B19684FF640
:100DB000FF031940044B0B4343EA0221014B196026
:100DC00000BF70470CED00E00000FA0570B5044666
:100DD0000D460CB9012070BD5A48006800F00700AC
:100DE000A8420ED25748006820F007002843554912
:100DF00008600846006800F00700A84201D0012002
:100E0000E9E7207800F0020002281DD1207800F0E8
:100E10000400042805D14C48406840F4E0604A4989
:100E20004860207800F00800082805D1464840684E
:100E300040F46050444948604348406820F0F00066
:100E4000A168084340494860207800F0010078B369
:100E50006068012806D13C48006800F4003090B971
:100E60000120B8E76068022806D13748006800F022
:100E7000007040B90120AEE73348006800F002007E
:100E800008B90120A7E73048406820F003006168F6
:100E900008432D494860FFF7C1FE064609E0FFF709
:100EA000BDFE801B41F28831884202D9032092E7BF
:100EB00007E02548406800F00C006168B0EB810F46
:100EC000EDD12048006800F00700A8420ED91D4867
:100ED000006820F0070028431A49086008460068A7
:100EE00000F00700A84201D0012074E7207800F04C
:100EF0000400042807D11448406820F4E060E16849
:100F0000084311494860207800F00800082808D1FB
:100F10000D48406820F46050216940EAC1000A4948
:100F2000486000F03FF808494968C1F30311074AD7
:100F3000515CC8400649086006480068FFF794FE07
:100F4000002048E70020024000100240B0320008B4
:100F50006800002070000020014800687047000011
:100F60006800002000B5FFF7F7FF04494968C1F3A6
:100F70000221034A515CC84000BD0000001002403D
:100F8000C032000800B5FFF7E7FF04494968C1F324
:100F9000C221034A515CC84000BD0000001002405D
:100FA000C032000870B50021002200240023002078
:100FB000134D696801F00C05F5B1042D02D0082D20
:100FC00019D101E00F4819E00F4DC1F38346AB5D25
:100FD00001F4803555B10A4D6D68C5F340450B4E9F
:100FE000725D084D5D43B5FBF2F402E0084D03FB72
:100FF00005F4204602E000BF024800BF00BF70BDFC
:101000000010024000127A00C8320008D8320008EE
:1010100000093D00F8B504460CB90120F8BD207860
:1010200000F00100002878D0F848406800F00C007B
:1010300004280CD0F548406800F00C00082811D1B5
:10104000F248406800F48030B0F5803F0AD1EF48A4
:10105000006800F4003000285FD0606800285CD190
:101060000120DBE700BF6068B0F5803F06D1E748AC
:10107000006840F48030E549086028E0606858B9AD
:10108000E248006820F48030E049086008460068C3
:1010900020F4802008601AE06068B0F5A02F0BD122
:1010A000DA48006840F48020D849086008460068A3
:1010B00040F4803008600AE0D448006820F48030B2
:1010C000D24908600846006820F48020086000BF0C
:1010D000606888B1FFF7A2FD054606E0FFF79EFDB8
:1010E000401B642801D9032098E7C848006800F431
:1010F00000300028F2D010E0FFF790FD054606E032
:10110000FFF78CFD401B642801D9032086E7BF4808
:10111000006800F400300028F2D1207800F00200CE
:10112000022857D1B948406800F00C0050B1B748C8
:10113000406800F00C00082818D1B448406800F45A
:10114000803098B9B148006800F0020020B12069F1
:10115000012801D0012061E7AC48006820F0F800C8
:10116000616940EAC100A949086033E02069E8B13B
:101170000120A7490860FFF751FD054606E0FFF78B
:101180004DFD401B022801D9032047E79F48006816
:1011900000F002000028F2D09C48006820F0F8001F
:1011A000616940EAC1009949086013E0002098494C
:1011B0000860FFF733FD054606E0FFF72FFD401BF3
:1011C000022801D9032029E79048006800F00200B6
:1011D0000028F2D1207800F0080008282DD1A0695D
:1011E000B8B101208B490860FFF718FD054606E0FD
:1011F000FFF714FD401B022801D903200EE78348A6
:10120000406A00F002000028F2D0012001F06EF9DF
:1012100013E000207F490860FFF700FD054606E067
:10122000FFF7FCFC401B022801D90320F6E67748B3
:10123000406A00F002000028F2D1207800F004009B
:10124000042873D100277148C06900F0805070B93C
:1012500000BF6E48C06940F080506C49C8610846C4
:10126000C06900F08050009000BF00BF01276A48AD
:10127000006800F48070B0B96748006840F480707E
:1012800065490860FFF7CAFC054606E0FFF7C6FCA3
:10129000401B642801D90320C0E65F48006800F4C1
:1012A00080700028F2D000BFE068012806D15748BE
:1012B000006A40F001005549086227E0E06858B92B
:1012C0005248006A20F00100504908620846006A4E
:1012D00020F00400086219E0E06805280BD14B48B3
:1012E000006A40F00400494908620846006A40F07C
:1012F000010008620AE04548006A20F00100434905
:1013000008620846006A20F00400086200BFE06836
:10131000A0B1FFF783FC054609E0FFF77FFC401B07
:1013200041F28831884202D9032077E622E037482B
:10133000006A00F002000028EFD012E0FFF76EFC18
:10134000054608E0FFF76AFC401B41F288318842FD
:1013500001D9032062E62D48006A00F0020000284F
:10136000F0D1012F05D12948C06920F080502749CC
:10137000C86100BFE069C8B32448406800F00C00B1
:10138000082860D0E069022848D10020204908667A
:10139000FFF744FC054606E0FFF740FC401B02282F
:1013A00001D903203AE61948006800F000700028CF
:1013B000F2D1206AB0F5803F07D11448406820F48C
:1013C0000030A168084311494860D4E90801084386
:1013D0000E49496821F4741108430C494860012002
:1013E0000B490866FFF71AFC054607E03DE0FFF7EA
:1013F00015FC401B022801D903200FE603480068B2
:1014000000F000700028F2D02FE000000010024031
:101410000000424280044242007000400020144913
:101420000866FFF7FBFB054606E0FFF7F7FB401BEE
:10143000022801D90320F1E50E48006800F0007091
:101440000028F2D111E0E069012800D1E6E5094861
:10145000466806F48031206A814204D106F4701196
:10146000606A814201D00120D8E50020D6E5000065
:10147000000042420010024070B504462546681E36
:10148000B0F1807F01D301200FE0681E4FF0E02112
:1014900048610F214FF0FF3001F010FD00204FF0A8
:1014A000E021886107200861002070BD7047704707
:1014B00030B502460B4600BF92F83C00012801D12E
:1014C000022030BD012082F83C0000BF022082F8DB
:1014D0003D00106844681068816824F07004186842
:1014E000044310684460144D1068A84213D0134D93
:1014F0001068A8420FD01068B0F1804F0BD0104D8B
:101500001068A84207D00F4D1068A84203D00E4DB6
:101510001068A84205D121F0800158680143106885
:101520008160012082F83D0000BF002082F83C006D
:1015300000BF00BFC5E70000002C0140003401409F
:101540000004004000080040000C004010B50446B4
:101550000CB9012010BD94F83D0028B9002084F892
:101560003C00204600F026F8022084F83D00211DB2
:10157000206801F011F8012084F8460000BF84F8CB
:101580003E0001213F2001554020015541200155D9
:1015900000BF00BF012084F84200432001554420D1
:1015A00001554520015500BF012084F83D00002071
:1015B000D0E7000038B504462068B0F1804F15D15F
:1015C00000BF0B48C06940F001000949C8610846E6
:1015D000C06900F00100009000BF00BF002201219F
:1015E0001C20FFF7A1FB1C20FFF78EFB38BD00007D
:1015F00000100240014691F83D00012801D0012071
:101600007047022081F83D000868C06840F0010082
:101610000B68D860164B0868984213D0154B0868C1
:1016200098420FD00868B0F1804F0BD0124B086879
:10163000984207D0114B0868984203D0104B0868B5
:1016400098420CD10868806800F00702062A0CD086
:101650000868006840F001000B68186005E0086841
:10166000006840F001000B6818600020C8E7000027
:10167000002C0140003401400004004000080040FC
:10168000000C00402DE9F04104460D46002700BF44
:1016900094F83C00012802D10220BDE8F08101202D
:1016A00084F83C0000BF022084F83D002068866872
:1016B00026F0770626F47F46206886602868502842
:1016C00033D00CDC202850D004DC00284BD010286C
:1016D00051D149E0302849D040284CD139E0602828
:1016E0002DD0702807D0B0F5805F03D0B0F5005F33
:1016F00041D10DE041E0D5E902136A68206800F0AD
:1017000099FF2068866846F077062068866034E096
:10171000D5E902136A68206800F08CFF20688068B1
:1017200040F480402168886027E0EA6869682068A2
:1017300000F094FF5021206800F087FF1DE0EA6868
:101740006968206800F09DFF6021206800F07DFF3F
:1017500013E0EA686968206800F080FF4021206893
:1017600000F073FF09E000BF00BF00BF29682068D8
:1017700000F06BFF01E0012700BF00BF012084F8EB
:101780003D0000BF002084F83C0000BF384684E7DD
:10179000704710B5044620680069C0F34000D8B116
:1017A0002068C068C0F34000B0B16FF0020021684B
:1017B0000861012020772068806900F0030018B1DB
:1017C0002046FFF7E5FF05E0204600F0ADF8204693
:1017D00000F0ABF80020207720680069C0F380009B
:1017E000D8B12068C068C0F38000B0B16FF00400C9
:1017F00021680861022020772068806900F4407029
:1018000018B12046FFF7C4FF05E0204600F08CF831
:10181000204600F08AF80020207720680069C0F395
:10182000C000D8B12068C068C0F3C000B0B16FF08C
:10183000080021680861042020772068C06900F052
:10184000030018B12046FFF7A3FF05E0204600F093
:101850006BF8204600F069F80020207720680069C6
:10186000C0F30010D8B12068C068C0F30010B0B158
:101870006FF0100021680861082020772068C06997
:1018800000F4407018B12046FFF782FF05E02046C3
:1018900000F04AF8204600F048F800202077206841
:1018A000006900F0010058B12068C06800F0010034
:1018B00030B16FF0010021680861204600F036F871
:1018C00020680069C0F3C01058B12068C068C0F338
:1018D000C01030B16FF08000216808612046FFF72A
:1018E000E5FD20680069C0F3801058B12068C06829
:1018F000C0F3801030B16FF04000216808612046CD
:1019000000F062F820680069C0F3401058B1206808
:10191000C068C0F3401030B16FF02000216808614A
:101920002046FFF7C4FD10BD7047704710B5044650
:101930001C48844234D11C48007820B11B48006800
:10194000401C1A49086000F0CFFE1948008878B1A1
:1019500017480088401E80B21549088040B91548D4
:10196000008840F400401349088001201249088093
:101970001248008878B111480088401E80B20F4993
:10198000088040B90E48008840F400400C490880A7
:1019900001200C4908806FF00100024909680861C4
:1019A00010BD0000D80000202D00002030000020D5
:1019B0000C0000200400002000000020180000207F
:1019C0001A000020160000207047F8B504460E46A5
:1019D000174694F8420020282ED106B10FB90120F5
:1019E000F8BD01202063002060633A46314620465E
:1019F00001F028F90546EDB9206B012819D100BF87
:101A000000200090206800680090206840680090E6
:101A100000BF00BF00BF00BF21680C3151E8001FAC
:101A200041F0100021680C3141E80002002AF3D196
:101A300000E001252846D3E70220D1E7F8B50546A6
:101A40000F463149286888425DD1304800680068F7
:101A5000C0F3001600BF002000902C48006800680A
:101A600000902A4800684068009000BF00BF2748E7
:101A700000F066F8264801F07FFAFF20254908703B
:101A80002548007848702448008800128870234850
:101A90000078C87022480078087121480088001238
:101AA00048712048007888711F480078C8711E4826
:101AB0000088001208721D48007848721C4800789F
:101AC00088720B21134801F01CFA044620121149B8
:101AD000C8720C734FF47A730D22164800F057FB4E
:101AE0000020154908801548007810B100201349DE
:101AF000087014210648FEF740FB142204490348ED
:101B0000FFF763FF00BFF8BD0044004068010020FC
:101B10008C000020B40000201E00002020000020C7
:101B200022000020240000202600002028000020A1
:101B300029000020200100201A00002016000020AB
:101B400070B50446002520684069C0F3C01594F8BC
:101B50004100212817D1B5B100BF00BF2168143161
:101B600051E8001F21F080002168143141E8000293
:101B7000002AF3D100BFA06B10B1A06BFEF748FBA9
:101B8000204600F050FF20684069C0F3801594F8AB
:101B90004200222817D1B5B100BF00BF216814311F
:101BA00051E8001F21F040002168143141E8000293
:101BB000002AF3D100BFE06B10B1E06BFEF728FB09
:101BC000204600F0EAFE002070BD70472DE9F84F76
:101BD0000446206805682068C668206847694FF099
:101BE0000009CA4605F00F09B9F1000F0AD105F046
:101BF000200038B106F0200020B1204600F026FF7A
:101C0000BDE8F88FB9F1000F7BD007F0010018B9DB
:101C100006F49070002874D005F0010030B106F48D
:101C2000807018B1606C40F00100606405F0040041
:101C300030B107F0010018B1606C40F00200606440
:101C400005F0020030B107F0010018B1606C40F0FF
:101C50000400606405F0080048B106F0200010B9E7
:101C600007F0010018B1606C40F008006064606C1F
:101C7000002845D005F0200028B106F0200010B162
:101C8000204600F0E3FE20684069C0F3801A606CD3
:101C900000F0080010B9BAF1000F2CD0204600F077
:101CA0007CFE2068406900F0400000B300BF00BF28
:101CB0002168143151E8001F21F0400021681431DF
:101CC00041E80002002AF3D100BFE06B50B1774831
:101CD000E16B4863E06BFEF7C7FA88B1E06B416BDC
:101CE00088470DE02046FFF770FF09E009E0204635
:101CF000FFF76BFF04E02046FFF767FF00206064FA
:101D00007EE7206B012877D105F01000002873D002
:101D100006F010000028FAD000BF002000902068D4
:101D20000068009020684068009000BF00BF2068F5
:101D3000406900F0400000285FD0E06B0068406818
:101D40001FFA80F8B8F1000F55D0A08D404552DD44
:101D5000A4F82E80E06B8069202843D000BF00BF2C
:101D600021680C3151E8001F21F4807021680C318A
:101D700041E80002002AF3D100BF00BF00BF216884
:101D8000143151E8001F21F001002168143141E8AD
:101D90000002002AF3D100BF00BF00BF2168143148
:101DA00051E8001F21F040002168143141E8000291
:101DB000002AF3D100BF202084F8420000202063D5
:101DC00000BF00BF21680C3151E8001F21F0100056
:101DD00021680C3141E80002002AF3D100BFE06B1A
:101DE000FEF716FA02206063A08DE28D801A81B2A0
:101DF0002046FFF723FE03E742E0A08DE18D401A65
:101E00001FFA80F8E08DD0B3B8F1000F37D000BFD3
:101E100000BF21680C3151E8001F21F49070216847
:101E20000C3141E80002002AF3D100BF00BF00BF1F
:101E30002168143151E8001F21F00100216814319C
:101E400041E80002002AF3D100BF202084F84200BC
:101E50000020206300BF00BF21680C3151E8001F43
:101E600021F0100021680C3141E80002002AF3D172
:101E700000BF0220606341462046FFF7DFFDBFE65A
:101E800005F0800030B106F0800018B1204600F067
:101E90005DFFB5E605F0400030B106F0400018B136
:101EA000204600F0B0FDABE600BFA9E65F280008C1
:101EB00010B504460CB9012010BDA06900B100E0C6
:101EC00000BF94F8410028B9002084F84000204663
:101ED00000F02AF8242084F841002068C06820F42B
:101EE00000502168C860204600F02EFE206800697E
:101EF00020F49040216808612068406920F02A00A1
:101F0000216848612068C06840F400502168C860BA
:101F100000206064202084F8410084F84200002002
:101F2000606300BFC8E7000010B586B0044600201B
:101F3000029003900490059048492068884237D168
:101F400000BF4748806940F48040454988610846A1
:101F5000806900F48040019000BF00BF00BF0846C8
:101F6000806940F0040088610846806900F0040040
:101F7000019000BF00BF481502900220039003208B
:101F8000059002A93748FEF7A3FC4FF48060029049
:101F900000200390049002A93248FEF799FC002229
:101FA00011462520FEF7C0FE2520FEF7ADFE52E0CB
:101FB0002D49206888424ED100BF2948C06940F4AD
:101FC00000302749C8610846C06900F4003001901C
:101FD00000BF00BF00BF0846806940F00400886170
:101FE0000846806900F00400019000BF00BF042093
:101FF0000290022003900320059002A91948FEF7E1
:1020000067FC0820029000200390049002A9154864
:10201000FEF75EFC15481649086000204860002164
:10202000134881608021C1600021016141618161AB
:10203000C161FEF7B9FB08B1FEF7DDF800BF0C483F
:10204000E063446200BF002211462620FEF76CFECA
:102050002620FEF759FE06B010BD000000380140F2
:102060000010024000080140004400406C000240A3
:10207000B001002070B504460D46164694F84200A3
:1020800020280BD105B10EB9012070BD00202063BE
:1020900032462946204600F0D5FDF6E70220F4E757
:1020A00070B504460D46164694F8420020280BD120
:1020B00005B10EB9012070BD0020206332462946CB
:1020C000204600F023FEF6E70220F4E710B50446B0
:1020D0002348844221D12348008814280EDA22485C
:1020E000007822491F4A128888541E480088401CE4
:1020F0001C49088007201E49088008E0194800880C
:1021000040F400401749088001201A490870012254
:1021100015492046FFF7C4FF21E0174800880A2828
:102120000EDA164800781649134A12888854124865
:102130000088401C1049088007201249088008E0E8
:102140000D48008840F400400B49088001200E49EA
:102150000870012209492046FFF78CFF00BF10BD1F
:102160002001002004000020020000207800002050
:102170000C000020000000201A0000201C0000209D
:102180008C000020180000201600002070472DE968
:10219000F84F04460E46174699464FF0000A94F849
:1021A000410020284AD106B117B90120BDE8F88FB7
:1021B00000206064212084F84100FEF72FFD824654
:1021C000A784E784A068B0F5805F04D1206910B9C6
:1021D0000025B04602E035464FF000081BE05346AC
:1021E000002280212046CDF8009000F0DFFD08B1EC
:1021F0000320DBE745B9B8F80000C0F30800216808
:10220000486008F1020803E02878216848606D1CE6
:10221000E08C401EE084E08C0028E0D15346002290
:1022200040212046CDF8009000F0C0FD08B1032009
:10223000BCE7202084F841000020B7E70220B5E782
:10224000704700BFFEE7000010B500200849087085
:10225000012251020748FEF7DBFC0022012105485C
:10226000FEF7D6FC012211020348FEF7D1FC10BD97
:1022700000000020001001400008014008B500BF28
:102280000A48406940F00100084948610846406931
:1022900000F00100009000BF00BF00221146102096
:1022A000FEF742FD1020FEF72FFD08BD0010024092
:1022B00000B585B00020019002900390049000BF0B
:1022C0002E48806940F020002C49886108468069CA
:1022D00000F02000009000BF00BF00BF08468069EA
:1022E00040F0100088610846806900F010000090FE
:1022F00000BF00BF00BF0846806940F0040088614D
:102300000846806900F00400009000BF00BF002272
:1023100003211B48FEF77CFC01224FF44071184852
:10232000FEF776FC012211021648FEF771FC40F21E
:10233000012001900120029003900220049001A945
:102340000F48FEF7C5FA4FF481700190012002900A
:10235000002003900220049001A90948FEF7B8FA72
:102360004FF48070019001200290039002200490AD
:1023700001A90448FEF7ACFA05B000BD0010024008
:10238000001001400008014000B587B00020039014
:10239000049005900690019002904FF080401449FF
:1023A00008604720486000211148816040F2E73111
:1023B000C1600021016180218161FFF7C7F808B188
:1023C000FDF719FF4FF48050039003A90848FFF769
:1023D00059F908B1FDF70FFF00200190029001A903
:1023E0000348FFF765F808B1FDF705FF07B000BD2A
:1023F000D800002010B50B480B4908604FF461402D
:102400004860002108488160C16001610C21416180
:1024100000218161C161FFF74BFD08B1FDF7EBFEC3
:1024200010BD0000003801402001002010B50B480D
:102430000B4908604FF4165048600021084881603D
:10244000C16001610C21416100218161C161FFF71F
:102450002FFD08B1FDF7CFFE10BD00000044004085
:102460006801002000BFFEE700BFFEE770470000E4
:1024700010B50446012C05D1002201020B48FEF7DD
:10248000C7FB0CE02CB9012211020848FEF7C0FB83
:1024900005E00020064908700648047010BD0320BE
:1024A000034908700348047000BFF7E700080140C3
:1024B000060000200700002010B501225102074845
:1024C000FEF7A6FB012211020548FEF7A1FB05203D
:1024D0000449087001200449087010BD0010014033
:1024E00000080140060000200700002008B5084948
:1024F0000968C9084FF47A72B1FBF2F141430091C7
:1025000000BF00BF00994A1E00920029F9D108BD02
:1025100068000020704710B5FEF786FB10BD00B5BF
:102520008FB0282105A8FDF728FE14216846FDF785
:1025300024FE012005900004069000200790012051
:10254000099002200C90C1030D914FF4E0110E91FF
:1025500005A8FEF75FFD08B1FDF74DFE0F200090C6
:1025600002200190002002904FF480600390002030
:10257000049002216846FEF729FC08B1FDF73BFEF6
:102580000FB000BD7047000010B50248FFF701F919
:1025900010BD0000D800002010B50268204B984202
:1025A0000ED0204B98420BD0B0F1804F08D01E4B7C
:1025B000984205D01D4B984202D01D4B984203D142
:1025C00022F070024B681A43154B98420ED0154BFF
:1025D00098420BD0B0F1804F08D0134B984205D0F1
:1025E000124B984202D0124B984203D122F440720F
:1025F000CB681A4322F080034C6943EA040202606C
:102600008B68C3620B688362054B984202D0054B0E
:10261000984201D10B6903630123436110BD00009F
:10262000002C01400034014000040040000800403C
:10263000000C004030B50C46816821F47F4142EA2D
:10264000032525432943816030BD0A46816821F076
:10265000700142F0070319438160704730B50B46A3
:102660001446026A056A25F001050562816921F0B8
:10267000F00141EA041122F00A021A438161026268
:1026800030BD30B50B461446026A056A25F01005C8
:102690000562816921F4704141EA043122F0A0020F
:1026A00042EA03128161026230BD000010B50024CD
:1026B00014E004EB44000B4911F8200060B104EB76
:1026C0004401084A02EB810188688047002004EB3E
:1026D0004401044A02F82100601CC4B2042CE8DB67
:1026E00010BD00003800002000202AE000EB40016F
:1026F000154A02EB8101498809B300EB400102EB66
:1027000081014988491E00EB40020F4B03EB820216
:10271000518000EB40011A4602EB8101498871B9F2
:1027200000EB400102EB8101898800EB400203EBE2
:1027300082025180012100EB400203F82210411C6B
:10274000C8B20428D2DB70473800002010B5FF2043
:102750001649087016480078102101EB80001549D1
:102760000988C1F30321084413490870114800780F
:10277000124908700D480078114908700E48007819
:1027800048700E480078887003210D4800F0D7FB90
:102790000B49C870074800880A4908804FF47A73CB
:1027A000042207490848FFF7F2FC10BD0E00002084
:1027B00011000020140000200F0000201000002055
:1027C000A0000020120000206801002010B50B4876
:1027D0000078012811D10A48006840F2145188425B
:1027E00003D8012000F024FD07E000200349087011
:1027F000034908600D2000F01BFD10BD2D000020D6
:102800003000002010B50F480078C8B172B600F053
:10281000FBFB0D480078012808D10C4801780C48D2
:10282000007800F023FD00200749087014210948B2
:10283000FDF7A3FC0020084908800249087062B631
:1028400010BD000000000020010000200700002053
:10285000060000207800002004000020704770B5BA
:1028600005466C6A0020E085E0842046FFF7ADF95C
:1028700070BD70B506460025746A20684069C0F3D3
:10288000C01594F84100212805D125B10020E0842D
:10289000204600F0C8F820684069C0F3801594F81D
:1028A0004200222805D125B10020E085204600F015
:1028B00074F8606C40F0100060642046FFF785F902
:1028C00070BD70B505466C6A2868006800F020008D
:1028D000002842D1E08500BF00BF21680C3151E8DB
:1028E000001F21F4807021680C3141E80002002AA9
:1028F000F3D100BF00BF00BF2168143151E8001FB1
:1029000021F001002168143141E80002002AF3D1CE
:1029100000BF00BF00BF2168143151E8001F21F043
:1029200040002168143141E80002002AF3D100BFC1
:10293000202084F84200206B01280ED100BF00BF88
:1029400021680C3151E8001F21F0100021680C3182
:1029500041E80002002AF3D100BF00206063206B31
:10296000012804D1A18D2046FFF768F802E0204637
:10297000FFF7ACFB70BD70B505466C6A0120606363
:10298000206B012805D1A08D41082046FFF756F89D
:1029900002E02046FFF7FAFB70BD00BF00BF0268EF
:1029A0000C3252E8002F22F4907102680C3242E897
:1029B0000013002BF3D100BF00BF00BF0268143228
:1029C00052E8002F22F001010268143242E800139D
:1029D000002BF3D100BF016B01290ED100BF00BF56
:1029E00002680C3252E8002F22F0100102680C320B
:1029F00042E80013002BF3D100BF202180F84210E1
:102A000000210163704710B504462068C06820F0BB
:102A100040002168C860202084F841002046FFF76C
:102A20000FFC002010BD00BF00BF02680C3252E84E
:102A3000002F22F0C00102680C3242E80013002B84
:102A4000F3D100BF202180F841107047F8B504464B
:102A500094F84200222875D1A068B0F5805F0CD1AF
:102A6000206950B90025A66A20684068C0F30800B4
:102A70003080A06A801CA06215E0A56A0026A068CC
:102A8000B0F5805F03D0A06828B9206918B9206824
:102A90004068287004E02068406800F07F002870DB
:102AA000A06A401CA062E08D401E80B2E085002834
:102AB00046D12068C06820F020002168C8602068E6
:102AC000C06820F480702168C8602068406920F0E8
:102AD000010021684861202084F8420000206063E2
:102AE000206B012826D10020206300BF00BF216891
:102AF0000C3151E8001F21F0100021680C3141E831
:102B00000002002AF3D100BF2068006800F0100026
:102B100010280AD100BF00200090206800680090B3
:102B200020684068009000BF00BFA18D2046FEF7DE
:102B300085FF02E02046FFF7C9FA0020F8BD01E05A
:102B40000020FBE70220F9E770B504462168096917
:102B500021F44051E2681143226811612269A168A1
:102B60001143626941EA02052168C96841F20C62B9
:102B7000914329432268D1602168496921F4407159
:102B8000A2691143226851612D4A2168914202D104
:102B9000FEF7F8F901E0FEF7E5F900EBC00101EB03
:102BA000001162689200B1FBF2F100EBC00202EB8F
:102BB000001263689B00B2FBF3F26423B2FBF3F2F2
:102BC00002EBC20303EB0212A1EB8201322202EB01
:102BD00001116422B1FBF2F101F0F00100EBC0023F
:102BE00002EB001263689B00B2FBF3F26423B2FBBA
:102BF000F3F201EB021200EBC00101EB001163687C
:102C00009B00B1FBF3F100EBC00303EB001366681C
:102C1000B600B3FBF6F36426B3FBF6F303EBC3068F
:102C200006EB0313A1EB8301322303EB01116423B1
:102C3000B1FBF3F101F00F0111442268916070BD06
:102C40000038014077B581B0044615460298A0626D
:102C5000A58500206064222084F842002848E16BAA
:102C600088622848E16BC8622748E16B086300204E
:102C7000E16B486302AE32682368191D2B46E06B96
:102C8000FDF7D8FD00BF002000902068006800908C
:102C900020684068009000BF00BF206970B100BF8D
:102CA00000BF21680C3151E8001F41F48070216899
:102CB0000C3141E80002002AF3D100BF00BF00BF81
:102CC0002168143151E8001F41F0010021681431DE
:102CD00041E80002002AF3D100BF00BF00BF216815
:102CE000143151E8001F41F040002168143141E8DF
:102CF0000002002AF3D100BF002004B070BD000024
:102D0000C3280008772900087328000810B5034677
:102D100099629A85DA8500205864222083F842005F
:102D2000186928B11868C06840F480701C68E060B9
:102D30001868406940F001001C6860611868C0684C
:102D400040F020001C68E060002010BD014691F8B2
:102D50004100212828D18868B0F5805F0BD108692F
:102D600048B90A6A1088C0F308000B685860086AFE
:102D7000801C086205E00B6A581C086218780B6812
:102D80005860C88C401E80B2C88458B90868C068B2
:102D900020F080000B68D8600868C06840F04000F0
:102DA0000B68D860002070470220FCE72DE9F04155
:102DB00004460D4617469846069E34E0701C88B3BC
:102DC0002EB1FDF72BFFA0EB0800B0422BD900BFBE
:102DD00000BF21680C3151E8001F21F4D070216838
:102DE0000C3141E80002002AF3D100BF00BF00BF50
:102DF0002168143151E8001F21F0010021681431CD
:102E000041E80002002AF3D100BF202084F84100ED
:102E100084F8420000BF002084F8400000BF032077
:102E2000BDE8F081FFE7206800682840A84201D192
:102E3000012000E00020B842C0D00020F0E70000F0
:102E400010B50248FEF7C2FE10BD000020010020B0
:102E500010B50248FEF7BAFE10BD00006801002060
:102E600000BFFEE710B50446012C05D10022410247
:102E70000B48FDF7CDFE0CE02CB9012251020848A9
:102E8000FDF7C6FE05E000200649087006480470FC
:102E900010BD0220034908700348047000BFF7E723
:102EA00000100140060000200700002002480068D2
:102EB000C0F30220704700000CED00E010B50028C0
:102EC00004DB0A07130E054A135406E00A07140E22
:102ED000034A00F00F031B1FD45410BD00E400E0B0
:102EE00018ED00E002E008C8121F08C1002AFAD15C
:102EF00070477047002001E001C1121F002AFBD17A
:102F0000704730B503460C464FF6FF71002212E0C1
:102F1000985C414000250AE001F0010020B1490819
:102F20004AF20100414000E04908681CC5B2082D82
:102F3000F2DB501CC2B2A242EADB88B230BD30B52F
:102F400002460B460020002112E0545C6040002441
:102F50000AE000F0800525B1312585EA4005E8B298
:102F600001E04506280E641C082CF2DB4C1CE1B283
:102F70009942EADB30BD00000178012913D1417884
:102F8000827801EB02211B4A1180C17801F00F0108
:102F9000194A11704179027902F00E0201EB022107
:102FA000164A118024E00178022909D141788278FB
:102FB00001EB02210F4A11800179114A117017E0CB
:102FC000017804290ED14178827801EB0221094A67
:102FD0001180C178027902F0010201EB0221094A55
:102FE000118005E04178827801EB0221014A1180CD
:102FF000704700001E00002029000020260000204D
:10300000200000202200002010B5664800780C281F
:1030100070D1644840780A283AD1624840796149C1
:10302000097940EA01206049088004215D48FFF7E2
:1030300068FF5E4908805C480088098888420AD099
:1030400000205B4908705748C0785A490870012031
:103050005949087010BD53488078022804D151495D
:10306000C878FFF7FFFE0FE04E488078032804D1B0
:103070004C49C878FFF7FCF906E000204C4908707D
:103080004848C0784B49087001204B49087086E0D9
:10309000444840780B284ED142484079414909794B
:1030A00040EA01204049088004213E48FFF729FFFB
:1030B0003E4908803C4800880988884205D00020A5
:1030C0003E4908703E49088069E03648807801280A
:1030D00005D13C49087000203B4908605FE0314859
:1030E0008078A02807D10320344908700020344993
:1030F000088054E04CE02B488078B02806D10220AC
:103100002E49087000202E49088048E02548807824
:10311000C0280AD10120294908702248C07800EB54
:10312000800040002649088039E0002023490870CB
:103130002349088033E01B4840780C2820D11948E7
:1031400040791849097940EA01201749088004218B
:103150001448FFF7D6FE15490880134800880988EF
:10316000884207D00020124908700E48C0781149E3
:10317000087001E0FFF7A0F901200F4908700EE088
:1031800000200B4908700748C0780A49087006E01B
:103190000020074908700348C0780649087000BF3E
:1031A00058E7000078000020080000200A000020F6
:1031B0000600002007000020010000201100002070
:1031C000140000202D00002030000020FDF738FD05
:1031D000FFF7A5F9FFF76CF8FFF750F8FFF7D4F801
:1031E000FFF708F9FFF722F9FFF72EF801220B4944
:1031F0000B48FEF755FF14220A490B48FEF7E5FB82
:103200006FF001000949096808610848FEF7F2F902
:10321000FCF7F4FF01E0FFF749FAFCE702000020A9
:10322000200100208C00002068010020D800002030
:103230007CB50446002000900190FF208DF800002E
:1032400020208DF801008DF8024003216846FFF729
:1032500076FE05468DF803504FF47A7304226946D2
:103260000148FEF794FF7CBD680100207CB5044650
:103270000D460020009001900C208DF800008DF884
:1032800001408DF8025003216846FFF73AFE0646DA
:1032900030128DF80300F0B28DF804004FF47A7309
:1032A000052269460148FEF772FF7CBD200100201F
:1032B00000000000000000000102030406070809E6
:1032C00000000000010203040203040506070809C8
:1032D0000A0B0C0D0E0F101001020000FC3200084A
:1032E0000000002078000000E42E0008743300087D
:1032F0007800002080050000F42E00080000000087
:1033000000000000000000000000000000030000BA
:1033100000000000000000000000000000000000AD
:10332000000000000000000000000000000000009D
:103330000000000000000A000A0000000528000844
:103340000000140014000000CD2700080000140045
:10335000140000004D2700080000140014000000B5
:103360005D2800080024F4000000000010000000A8
:043370000100000058
:0400000508000131BD
:00000001FF
