:020000040800F2
:100000004006002049010008CD2300089521000882
:10001000C9230008B50100086D2E0008000000008B
:10002000000000000000000000000000792400082B
:100030000502000800000000D12300087B2400080E
:100040006301000863010008630100086301000800
:1000500063010008630100086301000863010008F0
:1000600063010008630100086301000863010008E0
:1000700063010008630100086301000863010008D0
:10008000B9010008C9010008630100086301000804
:1000900063010008630100086301000863010008B0
:1000A00063010008630100086301000863010008A0
:1000B000ED240008630100086301000863010008E3
:1000C0006301000863010008630100086301000880
:1000D000630100084D2E00085D2E00086301000832
:1000E0006301000863010008630100086301000860
:1000F0006301000863010008630100086301000850
:10010000630100086301000863010008630100083F
:10011000630100086301000863010008630100082F
:10012000630100086301000863010008630100081F
:10013000DFF810D000F02CF8004800479D3100088F
:10014000AFF300804006002006488047064800477D
:10015000FEE7FEE7FEE7FEE7FEE7FEE7FEE7FEE777
:10016000FEE7FEE7E924000831010008D2B201E011
:1001700000F8012B491EFBD270470022F6E710B5AC
:1001800013460A4604461946FFF7F0FF204610BD05
:10019000064C074D06E0E06840F0010394E80700D4
:1001A00098471034AC42F6D3FFF7C6FFC8320008B8
:1001B000E832000800BFFEE710B5024800F030F951
:1001C00010BD0000B401002010B5024800F028F96D
:1001D00010BD0000F801002030B590F84050012417
:1001E000AC40C56B6C60046863604468102C04D13B
:1001F0000468A2600468E16003E00468A160046828
:10020000E26030BD704772B600BFFEE70348406849
:1002100040F002000149486070470000002004E0FF
:100220000146002291F82100022808D004208863AA
:1002300000BF002081F8200000BF0120704708683F
:10024000006820F00E000B6818600868006820F055
:1002500001000B68186091F8403001209840CB6B8A
:100260005860012081F8210000BF002081F82000A3
:1002700000BF1046E2E7000070B50446002594F880
:100280002100022803D00420A0630125C1E02068DA
:10029000006820F00E00216808602068006820F0E7
:1002A0000100216808605C492068884252D95A4997
:1002B00078392068884201D1012047E056496439E5
:1002C0002068884201D1102040E05349503920680D
:1002D000884201D1801539E04F493C392068884275
:1002E00001D1801432E04C4928392068884202D17B
:1002F0004FF480302AE0484914392068884202D1FE
:100300004FF4801022E044492068884201D1400423
:100310001CE042492068884201D1012016E03F4993
:1003200014312068884201D110200FE03B49283168
:100330002068884201D1801508E038493C312068A6
:10034000884201D1801401E04FF480303349091F05
:10035000086051E0304978392068884201D1012095
:1003600047E02D4964392068884201D1102040E0DF
:10037000294950392068884201D1801539E0264941
:100380003C392068884201D1801432E02249283962
:100390002068884202D14FF480302AE01E49143987
:1003A0002068884202D14FF4801022E01A49206868
:1003B000884201D140041CE018492068884201D1DC
:1003C000012016E0154914312068884201D110201F
:1003D0000FE0124928312068884201D1801508E0D9
:1003E0000E493C312068884201D1801401E04FF46D
:1003F0008030094980394860012084F8210000BF1D
:10040000002084F8200000BF606B10B12046616BB3
:100410008847284670BD0000800002400804024062
:1004200070B50446E06B05682068066894F84010D3
:10043000042088402840002875D006F004000028D9
:10044000FAD02068006800F0200028B92068006811
:1004500020F0040021680860D5492068884254D9FA
:10046000D34978392068884201D1042049E0D04935
:1004700064392068884201D1402042E0CC4950399B
:100480002068884201D100153BE0C9493C39206809
:10049000884202D14FF4804033E0C54928392068B2
:1004A000884202D14FF480202BE0C14914392068E2
:1004B000884202D14FF4800023E0BD492068884281
:1004C00001D1C0041DE0BB492068884201D104204D
:1004D00017E0B84914312068884201D1402010E06B
:1004E000B44928312068884201D1001509E0B1499A
:1004F0003C312068884202D14FF4804001E04FF443
:100500008020AC49091F086054E0A9497839206867
:10051000884201D104204AE0A54964392068884214
:1005200002D1402043E04CE0A14950392068884284
:1005300001D100153BE09E493C392068884202D138
:100540004FF4804033E09A4928392068884202D12C
:100550004FF480202BE0964914392068884202D15C
:100560004FF4800023E092492068884201D1C00402
:100570001DE090492068884201D1042017E08D4990
:1005800014312068884201D1402010E08949283187
:100590002068884201D1001509E086493C31206875
:1005A000884202D14FF4804001E04FF4802080491E
:1005B00080394860E06A002802D02046E16A884716
:1005C000F4E094F84010022088402840002871D0C0
:1005D00006F002000028FAD02068006800F0200031
:1005E00040B92068006820F00A00216808600120F6
:1005F00084F821006E492068884254D96C497839C2
:100600002068884201D1022049E0694964392068A4
:10061000884201D1202042E0654950392068884253
:1006200001D140153BE062493C392068884202D143
:100630004FF4005033E05E4928392068884202D1E7
:100640004FF400302BE05A4914392068884202D117
:100650004FF4001023E056492068884201D18004FD
:100660001DE054492068884201D1022017E0514919
:1006700014312068884201D1202010E04D492831F2
:100680002068884201D1401509E04A493C31206880
:10069000884202D14FF4005001E04FF40030454948
:1006A000091F086054E0424978392068884202D125
:1006B00002204AE057E03E4964392068884201D16F
:1006C000202042E03A4950392068884201D1401543
:1006D0003BE037493C392068884202D14FF4005052
:1006E00033E0334928392068884202D14FF4003082
:1006F0002BE02F4914392068884202D14FF40010B2
:1007000023E02B492068884201D180041DE029495B
:100710002068884201D1022017E026491431206860
:10072000884201D1202010E02249283120688842E7
:1007300001D1401509E01F493C312068884202D1AF
:100740004FF4005001E04FF40030194980394860FF
:1007500000BF002084F8200000BFA06A30B320460C
:10076000A16A884722E094F8401008208840284079
:10077000E0B106F00800C8B12068006820F00E0063
:100780002168086094F8401001208840E16B4860BF
:100790000120A06384F8210000BF002084F820001D
:1007A00000BF206B10B12046216B884770BD000050
:1007B00080000240080402400146002209B90120DD
:1007C00070471E4B086898420BD21D4B0868C01A30
:1007D0001423B0FBF3F08000086419480838C8639C
:1007E0000AE0164B0868C01A1423B0FBF3F080002F
:1007F000086412480838C863022081F8210008689C
:10080000026843F6F0708243D1E901031843CB68D4
:1008100018430B6918434B6918438B691843CB691C
:10082000184302430868026000208863012081F8B1
:100830002100002081F8200000BFC1E70804024029
:10084000080002402DE9F04104460D4616461F46B9
:100850004FF0000800BF94F82000012802D10220C8
:10086000BDE8F081012084F8200000BF94F8210049
:1008700001282CD1022084F821000020A0632068E8
:10088000006820F00100216808603B463246294696
:100890002046FFF7A1FCE06A30B12068006840F014
:1008A0000E00216808600BE02068006820F004005A
:1008B000216808602068006840F00A00216808602C
:1008C0002068006840F001002168086006E000BF71
:1008D000002084F8200000BF4FF002084046BFE728
:1008E0002DE9F847024600239C467BE14FF00108C2
:1008F00008FA03F4D1F8008008EA0400A0427DD190
:10090000DFF8F4A2D1F80480A8EB0A09D0453AD068
:1009100014DCB8F1030F50D009DCB8F1000F31D06E
:10092000B8F1010F1CD0B8F1020F49D120E0B8F1A5
:10093000110F18D0B8F1120F42D11EE0B9F5881F7F
:1009400025D006DCB9F5803F20D0B9F5801F37D11E
:100950001AE0B9F5001F18D0B9F5041F30D117E01F
:10096000D1F80CC02DE0D1F80C8008F1040C28E07F
:10097000D1F80C8008F1080C23E0D1F80C8008F1C4
:100980000C0C1EE000BF00BF00BF00BF00BF00BFD7
:10099000D1F80880B8F1000F02D14FF0040C0BE041
:1009A000D1F80880B8F1010F03D14FF0080C1461A1
:1009B00002E04FF0080C546103E04FF0000C00E03F
:1009C00000BF00BFFF2801D8904601E002F10408F3
:1009D0004646FF2802D84FEA830803E0A3F108083F
:1009E0004FEA88084746D6F800804FF00F0909FA09
:1009F00007F928EA09080CFA07F900E07AE048EA62
:100A00000908C6F80080D1F8048008F08058B8F1D1
:100A1000805F6FD100BFDFF8E481D8F8188048F01C
:100A20000108DFF8D891C9F81880C846D8F81880AE
:100A300008F00108CDF8008000BF00BF4FEAB938C8
:100A40004FEA930958F829504FEA83784FEA18790A
:100A50004FF00F0808FA09F825EA0805DFF8A08129
:100A6000424502D14FF0000824E0DFF8988142456A
:100A700002D14FF001081DE0DFF88C81424502D120
:100A80004FF0020816E0DFF88481424502D14FF0B2
:100A900003080FE0DFF87881424502D14FF00408E7
:100AA00008E0DFF87081424502D14FF0050801E00F
:100AB0004FF006084FEA83794FEA197908FA09F8E6
:100AC00048EA0505DFF850814FEA930948F82950B4
:100AD000D1F8048008F48018B8F5801F0BD1DFF836
:100AE0003C81D8F8008048EA0008DFF83091C9F866
:100AF00000800AE075E0DFF82481D8F8008028EA59
:100B00000008DFF81891C9F80080D1F8048008F4D3
:100B10000018B8F5001F0ED1DFF8008108F10408B5
:100B2000D8F8008048EA0008DFF8F09009F10409DD
:100B3000C9F800800DE0DFF8E48008F10408D8F877
:100B4000008028EA0008DFF8D49009F10409C9F808
:100B50000080D1F8048008F40038B8F5003F0ED1C9
:100B6000DFF8B880A8F10408D8F8008048EA000847
:100B7000DFF8A890A9F10409C9F800800DE0DFF8BA
:100B80009C80A8F10408D8F8008028EA0008DFF863
:100B90008C90A9F10409C9F80080D1F8048008F408
:100BA0008038B8F5803F0ED1DFF87080A8F10808D2
:100BB000D8F8008048EA0008DFF86090A9F1080939
:100BC000C9F800800DE0DFF85480A8F10808D8F8D3
:100BD000008028EA0008DFF84490A9F10809C9F864
:100BE00000805B1CD1F8008028FA03F8B8F1000FF0
:100BF0007FF47CAEBDE8F8870000111000100240C1
:100C000000080140000C01400010014000140140A8
:100C100000180140001C0140080001400804014088
:100C20000AB1016101E00B040361704701480068EB
:100C300070470000700000200348006803490978ED
:100C400008440149086070477000002078000020C7
:100C500010B50848006840F01000064908600320FD
:100C600000F0A8F80F2000F007F800F02BF80020A3
:100C700010BD00000020024070B504460E48007808
:100C80004FF47A71B1FBF0F00C490968B1FBF0F553
:100C9000284600F0F9FB08B1012070BD102C07D2E6
:100CA00000222146501E00F047F80548046001E08C
:100CB0000120F2E70020F0E7780000206C0000201F
:100CC0007400002008B500BF1148806940F00100A1
:100CD0000F4988610846806900F00100009000BF5C
:100CE00000BF00BF0846C06940F08050C861084698
:100CF000C06900F08050009000BF00BF00BF0549F0
:100D0000486820F0E06040F00070486000BF08BD17
:100D1000001002400000014001460846002809DB9F
:100D200000F01F0301229A4043099B0003F1E023D6
:100D3000C3F8002100BF70472DE9F05F80460D46E3
:100D40001646002702F0B8F8074639462A463346C9
:100D500001F00700C0F1070ABAF1040F02D94FF001
:100D6000040A01E0C0F1070AD14600F1040ABAF111
:100D7000070F02D24FF0000A01E0A0F1030AD446A7
:100D80004FF0010A0AFA09FAAAF1010A0AEA020A6C
:100D90000AFA0CFA4FF0010B0BFA0CFBABF1010B4A
:100DA0000BEA030B4AEA0B042146404602F08CF89A
:100DB000BDE8F09F00BF00F00702064B19684FF630
:100DC000FF031940044B0B4343EA0221014B196016
:100DD00000BF70470CED00E00000FA0570B5044656
:100DE0000D460CB9012070BD5A48006800F007009C
:100DF000A8420ED25748006820F007002843554902
:100E000008600846006800F00700A84201D00120F1
:100E1000E9E7207800F0020002281DD1207800F0D8
:100E20000400042805D14C48406840F4E0604A4979
:100E30004860207800F00800082805D1464840683E
:100E400040F46050444948604348406820F0F00056
:100E5000A168084340494860207800F0010078B359
:100E60006068012806D13C48006800F4003090B961
:100E70000120B8E76068022806D13748006800F012
:100E8000007040B90120AEE73348006800F002006E
:100E900008B90120A7E73048406820F003006168E6
:100EA00008432D494860FFF7C1FE064609E0FFF7F9
:100EB000BDFE801B41F28831884202D9032092E7AF
:100EC00007E02548406800F00C006168B0EB810F36
:100ED000EDD12048006800F00700A8420ED91D4857
:100EE000006820F0070028431A4908600846006897
:100EF00000F00700A84201D0012074E7207800F03C
:100F00000400042807D11448406820F4E060E16838
:100F1000084311494860207800F00800082808D1EB
:100F20000D48406820F46050216940EAC1000A4938
:100F3000486000F03FF808494968C1F30311074AC7
:100F4000515CC8400649086006480068FFF794FEF7
:100F5000002048E700200240001002409C320008B8
:100F60006C000020740000200148006870470000F9
:100F70006C00002000B5FFF7F7FF04494968C1F392
:100F80000221034A515CC84000BD0000001002402D
:100F9000AC32000800B5FFF7E7FF04494968C1F328
:100FA000C221034A515CC84000BD0000001002404D
:100FB000AC32000870B5002100220024002300207C
:100FC000134D696801F00C05F5B1042D02D0082D10
:100FD00019D101E00F4819E00F4DC1F38346AB5D15
:100FE00001F4803555B10A4D6D68C5F340450B4E8F
:100FF000725D084D5D43B5FBF2F402E0084D03FB62
:1010000005F4204602E000BF024800BF00BF70BDEB
:101010000010024000127A00B4320008C432000806
:1010200000093D00F8B504460CB90120F8BD207850
:1010300000F00100002878D0F848406800F00C006B
:1010400004280CD0F548406800F00C00082811D1A5
:10105000F248406800F48030B0F5803F0AD1EF4894
:10106000006800F4003000285FD0606800285CD180
:101070000120DBE700BF6068B0F5803F06D1E7489C
:10108000006840F48030E549086028E0606858B99D
:10109000E248006820F48030E049086008460068B3
:1010A00020F4802008601AE06068B0F5A02F0BD112
:1010B000DA48006840F48020D84908600846006893
:1010C00040F4803008600AE0D448006820F48030A2
:1010D000D24908600846006820F48020086000BFFC
:1010E000606888B1FFF7A2FD054606E0FFF79EFDA8
:1010F000401B642801D9032098E7C848006800F421
:1011000000300028F2D010E0FFF790FD054606E021
:10111000FFF78CFD401B642801D9032086E7BF48F8
:10112000006800F400300028F2D1207800F00200BE
:10113000022857D1B948406800F00C0050B1B748B8
:10114000406800F00C00082818D1B448406800F44A
:10115000803098B9B148006800F0020020B12069E1
:10116000012801D0012061E7AC48006820F0F800B8
:10117000616940EAC100A949086033E02069E8B12B
:101180000120A7490860FFF751FD054606E0FFF77B
:101190004DFD401B022801D9032047E79F48006806
:1011A00000F002000028F2D09C48006820F0F8000F
:1011B000616940EAC1009949086013E0002098493C
:1011C0000860FFF733FD054606E0FFF72FFD401BE3
:1011D000022801D9032029E79048006800F00200A6
:1011E0000028F2D1207800F0080008282DD1A0694D
:1011F000B8B101208B490860FFF718FD054606E0ED
:10120000FFF714FD401B022801D903200EE7834895
:10121000406A00F002000028F2D0012001F018F925
:1012200013E000207F490860FFF700FD054606E057
:10123000FFF7FCFC401B022801D90320F6E67748A3
:10124000406A00F002000028F2D1207800F004008B
:10125000042873D100277148C06900F0805070B92C
:1012600000BF6E48C06940F080506C49C8610846B4
:10127000C06900F08050009000BF00BF01276A489D
:10128000006800F48070B0B96748006840F480706E
:1012900065490860FFF7CAFC054606E0FFF7C6FC93
:1012A000401B642801D90320C0E65F48006800F4B1
:1012B00080700028F2D000BFE068012806D15748AE
:1012C000006A40F001005549086227E0E06858B91B
:1012D0005248006A20F00100504908620846006A3E
:1012E00020F00400086219E0E06805280BD14B48A3
:1012F000006A40F00400494908620846006A40F06C
:10130000010008620AE04548006A20F001004349F4
:1013100008620846006A20F00400086200BFE06826
:10132000A0B1FFF783FC054609E0FFF77FFC401BF7
:1013300041F28831884202D9032077E622E037481B
:10134000006A00F002000028EFD012E0FFF76EFC08
:10135000054608E0FFF76AFC401B41F288318842ED
:1013600001D9032062E62D48006A00F0020000283F
:10137000F0D1012F05D12948C06920F080502749BC
:10138000C86100BFE069C8B32448406800F00C00A1
:10139000082860D0E069022848D10020204908666A
:1013A000FFF744FC054606E0FFF740FC401B02281F
:1013B00001D903203AE61948006800F000700028BF
:1013C000F2D1206AB0F5803F07D11448406820F47C
:1013D0000030A168084311494860D4E90801084376
:1013E0000E49496821F4741108430C4948600120F2
:1013F0000B490866FFF71AFC054607E03DE0FFF7DA
:1014000015FC401B022801D903200FE603480068A1
:1014100000F000700028F2D02FE000000010024021
:101420000000424280044242007000400020144903
:101430000866FFF7FBFB054606E0FFF7F7FB401BDE
:10144000022801D90320F1E50E48006800F0007081
:101450000028F2D111E0E069012800D1E6E5094851
:10146000466806F48031206A814204D106F4701186
:10147000606A814201D00120D8E50020D6E5000055
:10148000000042420010024070B504462546681E26
:10149000B0F1807F01D301200FE0681E4FF0E02102
:1014A00048610F214FF0FF3001F00EFD00204FF09A
:1014B000E021886107200861002070BD70477047F7
:1014C00030B502460B4600BF92F83C00012801D11E
:1014D000022030BD012082F83C0000BF022082F8CB
:1014E0003D00106844681068816824F07004186832
:1014F000044310684460144D1068A84213D0134D83
:101500001068A8420FD01068B0F1804F0BD0104D7A
:101510001068A84207D00F4D1068A84203D00E4DA6
:101520001068A84205D121F0800158680143106875
:101530008160012082F83D0000BF002082F83C005D
:1015400000BF00BFC5E70000002C0140003401408F
:101550000004004000080040000C004010B50446A4
:101560000CB9012010BD94F83D0028B9002084F882
:101570003C00204600F026F8022084F83D00211DA2
:10158000206800F0BBFF012084F8460000BF84F80B
:101590003E0001213F2001554020015541200155C9
:1015A00000BF00BF012084F84200432001554420C1
:1015B00001554520015500BF012084F83D00002061
:1015C000D0E7000038B504462068B0F1804F15D14F
:1015D00000BF0B48C06940F001000949C8610846D6
:1015E000C06900F00100009000BF00BF002201218F
:1015F0001C20FFF7A1FB1C20FFF78EFB38BD00006D
:1016000000100240014691F83D00012801D0012060
:101610007047022081F83D000868C06840F0010072
:101620000B68D860164B0868984213D0154B0868B1
:1016300098420FD00868B0F1804F0BD0124B086869
:10164000984207D0114B0868984203D0104B0868A5
:1016500098420CD10868806800F00702062A0CD076
:101660000868006840F001000B68186005E0086831
:10167000006840F001000B6818600020C8E7000017
:10168000002C0140003401400004004000080040EC
:10169000000C00402DE9F04104460D46002700BF34
:1016A00094F83C00012802D10220BDE8F08101201D
:1016B00084F83C0000BF022084F83D002068866862
:1016C00026F0770626F47F46206886602868502832
:1016D00033D00CDC202850D004DC00284BD010285C
:1016E00051D149E0302849D040284CD139E0602818
:1016F0002DD0702807D0B0F5805F03D0B0F5005F23
:1017000041D10DE041E0D5E902136A68206800F09C
:1017100043FF2068866846F077062068866034E0DC
:10172000D5E902136A68206800F036FF20688068F7
:1017300040F480402168886027E0EA686968206892
:1017400000F03EFF5021206800F031FF1DE0EA6804
:101750006968206800F047FF6021206800F027FFDB
:1017600013E0EA686968206800F02AFF40212068D9
:1017700000F01DFF09E000BF00BF00BF296820681E
:1017800000F015FF01E0012700BF00BF012084F831
:101790003D0000BF002084F83C0000BF384684E7CD
:1017A000704710B5044620680069C0F34000D8B106
:1017B0002068C068C0F34000B0B16FF0020021683B
:1017C0000861012020772068806900F0030018B1CB
:1017D0002046FFF7E5FF05E0204600F0ADF8204683
:1017E00000F0ABF80020207720680069C0F380008B
:1017F000D8B12068C068C0F38000B0B16FF00400B9
:1018000021680861022020772068806900F4407018
:1018100018B12046FFF7C4FF05E0204600F08CF821
:10182000204600F08AF80020207720680069C0F385
:10183000C000D8B12068C068C0F3C000B0B16FF07C
:10184000080021680861042020772068C06900F042
:10185000030018B12046FFF7A3FF05E0204600F083
:101860006BF8204600F069F80020207720680069B6
:10187000C0F30010D8B12068C068C0F30010B0B148
:101880006FF0100021680861082020772068C06987
:1018900000F4407018B12046FFF782FF05E02046B3
:1018A00000F04AF8204600F048F800202077206831
:1018B000006900F0010058B12068C06800F0010024
:1018C00030B16FF0010021680861204600F036F861
:1018D00020680069C0F3C01058B12068C068C0F328
:1018E000C01030B16FF08000216808612046FFF71A
:1018F000E5FD20680069C0F3801058B12068C06819
:10190000C0F3801030B16FF04000216808612046BC
:1019100000F03CF820680069C0F3401058B120681E
:10192000C068C0F3401030B16FF02000216808613A
:101930002046FFF7C4FD10BD7047704710B5044640
:101940000E48844219D100F081FE0D48008878B11C
:101950000B480088401E80B20949088040B90948F8
:10196000008840F4004007490880012006490880AB
:101970006FF0010001490968086110BDDC0000201A
:101980000E00002004000020000000207047F8B581
:1019900004460E46174694F8420020282ED106B180
:1019A0000FB90120F8BD01202063002060633A4692
:1019B0003146204601F04CF90546EDB9206B01286F
:1019C00019D100BF002000902068006800902068B6
:1019D0004068009000BF00BF00BF00BF21680C310D
:1019E00051E8001F41F0100021680C3141E800026D
:1019F000002AF3D100E001252846D3E70220D1E7F1
:101A000038B504460D460E492068884217D100BFFC
:101A1000002000900B4800680068009009480068AA
:101A20004068009000BF00BF064800F011F8012098
:101A300005490870142205490248FFF7A8FF38BD80
:101A4000004400406C0100201000002090000020A5
:101A500070B50446002520684069C0F3C01594F8AD
:101A60004100212817D1B5B100BF00BF2168143152
:101A700051E8001F21F080002168143141E8000284
:101A8000002AF3D100BFA06B10B1A06BFEF7C8FB1A
:101A9000204600F0CEFF20684069C0F3801594F81E
:101AA0004200222817D1B5B100BF00BF2168143110
:101AB00051E8001F21F040002168143141E8000284
:101AC000002AF3D100BFE06B10B1E06BFEF7A8FB7A
:101AD000204600F068FF002070BD70472DE9F84FE8
:101AE0000446206805682068C668206847694FF08A
:101AF0000009CA4605F00F09B9F1000F0AD105F037
:101B0000200038B106F0200020B1204600F0A4FFEC
:101B1000BDE8F88FB9F1000F7BD007F0010018B9CC
:101B200006F49070002874D005F0010030B106F47E
:101B3000807018B1606C40F00100606405F0040032
:101B400030B107F0010018B1606C40F00200606431
:101B500005F0020030B107F0010018B1606C40F0F0
:101B60000400606405F0080048B106F0200010B9D8
:101B700007F0010018B1606C40F008006064606C10
:101B8000002845D005F0200028B106F0200010B153
:101B9000204600F061FF20684069C0F3801A606C45
:101BA00000F0080010B9BAF1000F2CD0204600F068
:101BB000FAFE2068406900F0400000B300BF00BF9B
:101BC0002168143151E8001F21F0400021681431D0
:101BD00041E80002002AF3D100BFE06B50B1774822
:101BE000E16B4863E06BFEF747FB88B1E06B416B4C
:101BF00088470DE02046FFF770FF09E009E0204626
:101C0000FFF76BFF04E02046FFF767FF00206064EA
:101C10007EE7206B012877D105F01000002873D0F3
:101C200006F010000028FAD000BF002000902068C5
:101C30000068009020684068009000BF00BF2068E6
:101C4000406900F0400000285FD0E06B0068406809
:101C50001FFA80F8B8F1000F55D0A08D404552DD35
:101C6000A4F82E80E06B8069202843D000BF00BF1D
:101C700021680C3151E8001F21F4807021680C317B
:101C800041E80002002AF3D100BF00BF00BF216875
:101C9000143151E8001F21F001002168143141E89E
:101CA0000002002AF3D100BF00BF00BF2168143139
:101CB00051E8001F21F040002168143141E8000282
:101CC000002AF3D100BF202084F8420000202063C6
:101CD00000BF00BF21680C3151E8001F21F0100047
:101CE00021680C3141E80002002AF3D100BFE06B0B
:101CF000FEF796FA02206063A08DE28D801A81B211
:101D00002046FFF77DFE03E742E0A08DE18D401AFB
:101D10001FFA80F8E08DD0B3B8F1000F37D000BFC4
:101D200000BF21680C3151E8001F21F49070216838
:101D30000C3141E80002002AF3D100BF00BF00BF10
:101D40002168143151E8001F21F00100216814318D
:101D500041E80002002AF3D100BF202084F84200AD
:101D60000020206300BF00BF21680C3151E8001F34
:101D700021F0100021680C3141E80002002AF3D163
:101D800000BF0220606341462046FFF739FEBFE6F0
:101D900005F0800030B106F0800018B1204600F058
:101DA000DBFFB5E605F0400030B106F0400018B1A9
:101DB000204600F02EFEABE600BFA9E6052800088D
:101DC00010B504460CB9012010BDA06900B100E0B7
:101DD00000BF94F8410028B9002084F84000204654
:101DE00000F02AF8242084F841002068C06820F41C
:101DF00000502168C860204600F0ACFE20680069F1
:101E000020F49040216808612068406920F02A0091
:101E1000216848612068C06840F400502168C860AB
:101E200000206064202084F8410084F842000020F3
:101E3000606300BFC8E7000010B586B0044600200C
:101E4000029003900490059055492068884237D14C
:101E500000BF5448806940F4804052498861084678
:101E6000806900F48040019000BF00BF00BF0846B9
:101E7000806940F0040088610846806900F0040031
:101E8000019000BF00BF481502900220039003207C
:101E9000059002A94448FEF723FD4FF480600290AC
:101EA00000200390049002A93F48FEF719FD00228C
:101EB00011462520FEF740FF2520FEF72DFF6CE0A0
:101EC0003A492068884268D100BF3648C06940F46A
:101ED00000303449C8610846C06900F40030019000
:101EE00000BF00BF00BF0846806940F00400886161
:101EF0000846806900F00400019000BF00BF042084
:101F00000290022003900320059002A92648FEF7C4
:101F1000E7FC0820029000200390049002A92248C8
:101F2000FEF7DEFC224823490860002048600021BB
:101F3000204881608021C16000210161416181618F
:101F4000C161FEF739FC08B1FEF75DF900BF194821
:101F5000E063446200BF164814301749086010203F
:101F600048600021144881608021C1600021016126
:101F700041618161C161FEF71FFC08B1FEF743F9C1
:101F800000BF0D48A063446200BF00221146262016
:101F9000FEF7D2FE2620FEF7BFFE06B010BD000001
:101FA0000038014000100240000801400044004099
:101FB0006C000240B4010020F801002070B5044616
:101FC0000D46164694F8420020280BD105B10EB9F3
:101FD000012070BD0020206332462946204600F0D3
:101FE0009BFEF6E70220F4E710B50446124884424F
:101FF00021D11248008814280EDA114800781149BE
:102000000E4A128888540D480088401C0B490880ED
:1020100007200D49088008E00848008840F4004087
:102020000649088001200949087001220449204618
:10203000FFF7C4FF00BF10BD2401002004000020F2
:10204000020000207C0000200E0000200000002084
:1020500070472DE9F84F04460E46174699464FF053
:10206000000A94F8410020284AD106B117B901208E
:10207000BDE8F88F00206064212084F84100FEF75D
:10208000D5FD8246A784E784A068B0F5805F04D1BF
:10209000206910B90025B04602E035464FF000082F
:1020A0001BE05346002280212046CDF8009000F02E
:1020B00083FE08B10320DBE745B9B8F80000C0F3A0
:1020C00008002168486008F1020803E028782168C8
:1020D00048606D1CE08C401EE084E08C0028E0D15C
:1020E0005346002240212046CDF8009000F064FEC7
:1020F00008B10320BCE7202084F841000020B7E7A6
:102100000220B5E7F7B50446154694F841002028AB
:1021100036D1019800B10DB90120FEBD01982062B1
:10212000A584E58400206064212084F841001548DE
:10213000A16B88621448A16BC8621448A16B086344
:102140000020A16B486301AE23681A1D31682B463D
:10215000A06BFEF777FB6FF040002168086000BFBE
:1021600000BF2168143151E8001F41F08000216850
:10217000143141E80002002AF3D100BF0020CCE76F
:102180000220CAE7412900089929000819280008F7
:102190007047704700BFFEE710B50020084908707F
:1021A000012211020748FEF73BFD002201210548EC
:1021B000FEF736FD012211020348FEF731FD10BD86
:1021C00000000020001001400008014008B500BFD9
:1021D0000E48406940F001000C49486108464069DA
:1021E00000F00100009000BF00BF00221146102047
:1021F000FEF7A2FD1020FEF78FFD002211461120F0
:10220000FEF79AFD1120FEF787FD08BD0010024081
:1022100000B585B00020019002900390049000BFAB
:102220002E48806940F020002C498861084680696A
:1022300000F02000009000BF00BF00BF084680698A
:1022400040F0100088610846806900F0100000909E
:1022500000BF00BF00BF0846806940F004008861ED
:102260000846806900F00400009000BF00BF002213
:1022700003211B48FEF7D4FC01224FF4407118489B
:10228000FEF7CEFC012211021648FEF7C9FC40F20F
:10229000012001900120029003900220049001A9E6
:1022A0000F48FEF71DFB4FF4817001900120029052
:1022B000002003900220049001A90948FEF710FBBA
:1022C0004FF480700190012002900390022004904E
:1022D00001A90448FEF704FB05B000BD0010024050
:1022E000001001400008014000B587B000200390B5
:1022F000049005900690019002904FF080401449A0
:1023000008604720486000211148816040F2E731B1
:10231000C1600021016180218161FFF71FF908B1CF
:10232000FDF771FF4FF48050039003A90848FFF7B1
:10233000B1F908B1FDF767FF00200190029001A9F3
:102340000348FFF7BDF808B1FDF75DFF07B000BD1A
:10235000DC00002010B50B480B4908604FF46140C9
:102360004860002108488160C16001610C21416121
:1023700000218161C161FFF723FD08B1FDF743FF33
:1023800010BD0000003801402401002010B50C48A9
:102390000C4908604FF416504860002109488160DC
:1023A0004FF40051C160002101610C214161002105
:1023B0008161C161FFF704FD08B1FDF724FF10BD85
:1023C000004400406C01002000BFFEE700BFFEE7B4
:1023D0007047000010B50446012C05D1002201020F
:1023E0000B48FEF71DFC0CE02CB901221102084835
:1023F000FEF716FC05E00020064908700648047048
:1024000010BD0320034908700348047000BFF7E7BC
:1024100000080140060000200700002010B501223E
:1024200011020748FEF7FCFB012211020548FEF7E6
:10243000F7FB05200449087001200449087010BD0D
:1024400000100140000801400600002007000020A5
:1024500008B508490968C9084FF47A72B1FBF2F16E
:102460004143009100BF00BF00994A1E009200291D
:10247000F9D108BD6C000020704710B5FEF7DCFBF9
:1024800010BD00B58FB0282105A8FDF776FE1421F8
:102490006846FDF772FE01200590000406900020BA
:1024A00007900120099002200C90C1030D914FF478
:1024B000E0110E9105A8FEF7B5FD08B1FDF7A3FEEA
:1024C0000F20009002200190002002904FF48060C5
:1024D00003900020049002216846FEF77FFC08B1BB
:1024E000FDF791FE0FB000BD7047000010B5024827
:1024F000FFF757F910BD0000DC00002010B502689E
:10250000204B98420ED0204B98420BD0B0F1804F18
:1025100008D01E4B984205D01D4B984202D01D4B4F
:10252000984203D122F070024B681A43154B98422F
:102530000ED0154B98420BD0B0F1804F08D0134B02
:10254000984205D0124B984202D0124B984203D1C8
:1025500022F44072CB681A4322F080034C6943EAAC
:10256000040202608B68C3620B688362054B984269
:1025700002D0054B984201D10B69036301234361EB
:1025800010BD0000002C0140003401400004004058
:1025900000080040000C004030B50C46816821F472
:1025A0007F4142EA032525432943816030BD0A4625
:1025B000816821F0700142F0070319438160704780
:1025C00030B50B461446026A056A25F0010505621E
:1025D000816921F0F00141EA041122F00A021A4354
:1025E0008161026230BD30B50B461446026A056A4D
:1025F00025F010050562816921F4704141EA04313A
:1026000022F0A00242EA03128161026230BD0000A2
:1026100010B5002414E004EB44000B4911F820002D
:1026200060B104EB4401084A02EB810188688047ED
:10263000002004EB4401044A02F82100601CC4B2EB
:10264000042CE8DB10BD00003C00002000202AE044
:1026500000EB4001154A02EB8101498809B300EB08
:10266000400102EB81014988491E00EB40020F4BFB
:1026700003EB8202518000EB40011A4602EB81011C
:10268000498871B900EB400102EB8101898800EBB8
:10269000400203EB82025180012100EB400203F86B
:1026A0002210411CC8B20428D2DB70473C00002035
:1026B00010B50948007868B14FF47A7307220749CA
:1026C0000748FFF7C6FC14210448FDF756FD00201B
:1026D0000149087010BD000010000020900000208B
:1026E0002401002008B572B62048007820B90020E7
:1026F0001F4908701F49088000200090FF201E49D4
:1027000008701B480078102101EB800019490988E6
:10271000C1F3032108441949087016480078184984
:102720000870164800788DF80000084600788DF88B
:10273000010011480078134908701048007848706B
:102740000F480078887000220221684600F0FDFBE7
:102750000C49C870074800880B49088004220949C1
:102760000A48FFF7CFFC62B608BD00001500002044
:10277000140000201800002011000020120000208A
:1027800013000020A4000020160000206C0100208F
:1027900010B505480078012805D10C2000F030FD67
:1027A00000200149087010BD3100002010B50F480D
:1027B0000078C8B172B600F001FC0D48007801281D
:1027C00008D10C4801780C48007800F03FFD00204B
:1027D0000749087014210948FDF7CFFC002008497B
:1027E00008800249087062B610BD00000000002099
:1027F0000100002007000020060000207C000020CF
:102800000400002070B505466C6A0020E085E08475
:102810002046FFF762F970BD70B506460025746A60
:1028200020684069C0F3C01594F84100212805D103
:1028300025B10020E084204600F0FBF820684069C4
:10284000C0F3801594F84200222805D125B100205C
:10285000E085204600F0A7F8606C40F0100060644E
:102860002046FFF73AF970BD70B505466C6A2868D6
:10287000006800F02000002842D1E08500BF00BFC2
:1028800021680C3151E8001F21F4807021680C315F
:1028900041E80002002AF3D100BF00BF00BF216859
:1028A000143151E8001F21F001002168143141E882
:1028B0000002002AF3D100BF00BF00BF216814311D
:1028C00051E8001F21F040002168143141E8000266
:1028D000002AF3D100BF202084F84200206B012899
:1028E0000ED100BF00BF21680C3151E8001F21F05C
:1028F000100021680C3141E80002002AF3D100BF2A
:1029000000206063206B012804D1A18D2046FFF7D1
:1029100077F802E02046FFF767FB70BD70B505460B
:102920006C6A01206063206B012805D1A08D4108ED
:102930002046FFF765F802E02046FFF789FB70BDEF
:1029400070B505466C6A2868006800F02000F8B988
:102950000020E08400BF00BF2168143151E8001F4F
:1029600021F080002168143141E80002002AF3D1EF
:1029700000BF00BF00BF21680C3151E8001F41F0CB
:10298000400021680C3141E80002002AF3D102E046
:102990002046FFF7FDFB70BD70B50446656A28460A
:1029A000FFF7F7FB70BD00BF00BF02680C3252E8B2
:1029B000002F22F4907102680C3242E80013002BC1
:1029C000F3D100BF00BF00BF0268143252E8002FED
:1029D00022F001010268143242E80013002BF3D107
:1029E00000BF016B01290ED100BF00BF02680C328D
:1029F00052E8002F22F0100102680C3242E8001366
:102A0000002BF3D100BF202180F842100021016388
:102A1000704710B504462068C06820F04000216867
:102A2000C860202084F841002046FFF7B1FB002059
:102A300010BD00BF00BF02680C3252E8002F22F028
:102A4000C00102680C3242E80013002BF3D100BF32
:102A5000202180F841107047F8B5044694F84200F0
:102A6000222875D1A068B0F5805F0CD1206950B9DB
:102A70000025A66A20684068C0F308003080A06A7C
:102A8000801CA06215E0A56A0026A068B0F5805FF2
:102A900003D0A06828B9206918B920684068287058
:102AA00004E02068406800F07F002870A06A401CA5
:102AB000A062E08D401E80B2E085002846D12068EB
:102AC000C06820F020002168C8602068C06820F439
:102AD00080702168C8602068406920F0010021688A
:102AE0004861202084F8420000206063206B0128A8
:102AF00026D10020206300BF00BF21680C3151E8BF
:102B0000001F21F0100021680C3141E80002002A6A
:102B1000F3D100BF2068006800F0100010280AD12F
:102B200000BF002000902068006800902068406886
:102B3000009000BF00BFA18D2046FEF761FF02E0BC
:102B40002046FFF751FA0020F8BD01E00020FBE726
:102B50000220F9E770B504462168096921F4405163
:102B6000E2681143226811612269A1681143626918
:102B700041EA02052168C96841F20C629143294388
:102B80002268D1602168496921F44071A26911432A
:102B9000226851612D4A2168914202D1FEF7FAF96B
:102BA00001E0FEF7E7F900EBC00101EB00116268FC
:102BB0009200B1FBF2F100EBC00202EB001263687D
:102BC0009B00B2FBF3F26423B2FBF3F202EBC2030D
:102BD00003EB0212A1EB8201322202EB011164220B
:102BE000B1FBF2F101F0F00100EBC00202EB0012C8
:102BF00063689B00B2FBF3F26423B2FBF3F201EBD8
:102C0000021200EBC00101EB001163689B00B1FBF5
:102C1000F3F100EBC00303EB00136668B600B3FBEF
:102C2000F6F36426B3FBF6F303EBC30606EB0313DC
:102C3000A1EB8301322303EB01116423B1FBF3F118
:102C400001F00F0111442268916070BD003801400D
:102C500077B581B0044615460298A062A58500208C
:102C60006064222084F842002848E16B886228488A
:102C7000E16BC8622748E16B08630020E16B4863A1
:102C800002AE32682368191D2B46E06BFDF7DAFDB2
:102C900000BF002000902068006800902068406815
:102CA000009000BF00BF206970B100BF00BF216865
:102CB0000C3151E8001F41F4807021680C3141E86B
:102CC0000002002AF3D100BF00BF00BF2168143109
:102CD00051E8001F41F001002168143141E8000271
:102CE000002AF3D100BF00BF00BF2168143151E8B2
:102CF000001F41F040002168143141E80002002A21
:102D0000F3D100BF002004B070BD000069280008A6
:102D10001D2900081928000810B5034699629A85F4
:102D2000DA8500205864222083F84200186928B10F
:102D30001868C06840F480701C68E06018684069DA
:102D400040F001001C6860611868C06840F0200015
:102D50001C68E060002010BD014691F84100212868
:102D600028D18868B0F5805F0BD1086948B90A6A34
:102D70001088C0F308000B685860086A801C08625D
:102D800005E00B6A581C086218780B685860C88CFC
:102D9000401E80B2C88458B90868C06820F080001E
:102DA0000B68D8600868C06840F040000B68D860C5
:102DB000002070470220FCE72DE9F04104460D4653
:102DC00017469846069E34E0701C88B32EB1FDF776
:102DD0002DFFA0EB0800B0422BD900BF00BF216837
:102DE0000C3151E8001F21F4D07021680C3141E80A
:102DF0000002002AF3D100BF00BF00BF21681431D8
:102E000051E8001F21F001002168143141E800025F
:102E1000002AF3D100BF202084F8410084F842004A
:102E200000BF002084F8400000BF0320BDE8F0810F
:102E3000FFE7206800682840A84201D1012000E097
:102E40000020B842C0D00020F0E7000010B50248D2
:102E5000FEF744FE10BD00002401002010B502481A
:102E6000FEF73CFE10BD00006C01002000BFFEE735
:102E700010B50446012C05D1002201020B48FDF7D4
:102E8000CFFE0CE02CB9012211020848FDF7C8FE64
:102E900005E00020064908700648047010BD0220B5
:102EA000034908700348047000BFF7E700100140B1
:102EB000060000200700002002480068C0F302203E
:102EC000704700000CED00E010B5002804DB0A0795
:102ED000130E054A135406E00A07140E034A00F0C5
:102EE0000F031B1FD45410BD00E400E018ED00E0F8
:102EF00002E008C8121F08C1002AFAD170477047C3
:102F0000002001E001C1121F002AFBD1704730B53B
:102F100003460C464FF6FF71002212E0985C4140D8
:102F200000250AE001F0010020B149084AF2010041
:102F3000414000E04908681CC5B2082DF2DB501C76
:102F4000C2B2A242EADB88B230BD70B503460C467D
:102F50001546284600222DE09E5C86EA00010020EE
:102F600001F001060EB180F05E0001F002060EB124
:102F700080F0BC0001F004060EB180F0610001F0A9
:102F800008060EB180F0C20001F010060EB180F00C
:102F90009D0001F020060EB180F0230001F04006F4
:102FA0000EB180F0460001F080060EB180F08C007A
:102FB000561CF2B2A242CFDB002170BD10B56D48A5
:102FC00000780C2878D16B4840780A283AD16948B3
:102FD00040796849097940EA01206749088004215D
:102FE0006448FFF794FF65490880634800880988B2
:102FF00088420AD00020624908705E48C078614962
:10300000087001206049087010BD5A488078022875
:1030100004D15849C878FFF72BFF0FE05548807856
:10302000032804D15349C878FFF7D4F906E00020FB
:10303000534908704F48C0785249087001205249DE
:10304000087094E04B4840780B285CD1494840799F
:103050004849097940EA0120474908800421454848
:10306000FFF755FF45490880434800880988884292
:1030700005D00020454908704549088077E03D4863
:103080008078012802D14349087070E0394880787F
:10309000A02806D101203D49087000203C49088045
:1030A00065E034488078B02807D10220374908709D
:1030B0000020374908805AE052E02E488078C02826
:1030C0000AD10320314908702A48C07800EB8000FB
:1030D00040002F4908804AE026488078D0280CD14B
:1030E0002448C07818B900202B4908703FE001201F
:1030F000294908702549087039E0002023490870E3
:103100002349088033E01B4840780C2820D1194817
:1031100040791849097940EA0120174908800421BB
:103120001448FFF7F4FE1549088013480088098801
:10313000884207D00020124908700E48C078114913
:10314000087001E0FFF76AF901200F4908700EE0EE
:1031500000200B4908700748C0780A49087006E04B
:103160000020074908700348C0780649087000BF6E
:103170004AE700007C000020080000200A00002030
:10318000060000200700002001000020140000209D
:10319000180000203100002015000020FDF758FD28
:1031A000FFF76FF9FFF734F8FFF710F8FFF79CF817
:1031B000FFF7D0F8FFF7EAF8FEF7EEFF01220B4920
:1031C0000B48FEF7FBFE14220A490B48FEF7DFFB13
:1031D0006FF001000949096808610848FEF712FA12
:1031E000FDF714F801E0FFF713FAFCE702000020F6
:1031F00024010020900000206C010020DC00002051
:103200003EB504460020029020208DF808008DF87D
:103210000940002000900190FF208DF80000202040
:103220008DF801008DF802400022022102A8FFF76C
:103230008CFE05468DF803504FF47A7304226946DC
:103240000148FEF706FF3EBD6C0100207CB5044638
:103250000D460020009001900C208DF800008DF8A4
:1032600001408DF8025000208DF803008DF8040015
:1032700005216846FFF74BFE064630128DF8050023
:10328000F0B28DF806004FF47A73072269460248BF
:10329000FEF7DFFE7CBD00002401002000000000DE
:1032A00000000000010203040607080900000000F6
:1032B0000102030402030405060708090A0B0C0DAA
:1032C0000E0F101001020000E8320008000000207C
:1032D0007C000000F02E0008643300087C00002011
:1032E000C4050000002F00080000000000000000DE
:1032F00000000000000000000000000000000000CE
:1033000000000000000000000000000000000000BD
:1033100000000000000000000000000000000000AD
:103320000000000000000A000A000000AD270008AD
:103330000000140014000000912700080000140091
:1033400014000000E526000800000A000A00000042
:10335000B12600080024F400000000001000000066
:043360000100000068
:0400000508000131BD
:00000001FF
