:020000040800F2
:100000005805002045010008251F0008691D00084B
:10001000211F00088D010008BD220008000000001B
:100020000000000000000000000000002D1F00087C
:100030009101000800000000291F0008311F00087E
:100040005F0100085F0100085F0100085F01000810
:100050005F0100085F0100085F0100085F01000800
:100060005F0100085F0100085F0100085F010008F0
:100070005F0100085F0100085F0100085F010008E0
:100080005F0100085F0100085F0100085F010008D0
:100090005F0100085F0100085F0100085F010008C0
:1000A0005F0100085F0100085F0100085F010008B0
:1000B000391F00085F0100085F0100085F010008A8
:1000C0005F0100085F0100085F0100085F01000890
:1000D0005F010008A5220008B12200085F010008A6
:1000E0005F0100085F0100085F0100085F01000870
:1000F0005F0100085F0100085F0100085F01000860
:100100005F0100085F0100085F0100085F0100084F
:100110005F0100085F0100085F0100085F0100083F
:100120005F0100085F0100085F0100085F0100082F
:10013000DFF80CD000F018F80048004755260008FA
:10014000580500200648804706480047FEE7FEE7BE
:10015000FEE7FEE7FEE7FEE7FEE7FEE7FEE7FEE777
:10016000351F000831010008064C074D06E0E06825
:1001700040F0010394E8070098471034AC42F6D3EE
:10018000FFF7DAFFD0280008F0280008FEE700009B
:1001900070470000EFF3108072B600BFFEE700006A
:1001A00042F20400CEF20400016841F00201016055
:1001B00070470000014690F82100022816D1086817
:1001C000D1E90FC3026822F00E020260026822F039
:1001D00001020260012000FA03F2CCF8042081F849
:1001E00021000020002281F820207047042088632D
:1001F0000120002281F820207047000080B590F88F
:100200002110022927D1026840F2040C1368C4F2BD
:10021000020C23F00E03136013680CF17C018A4278
:1002200023F0010111601BD940F20841C4F2020120
:100230008A4248D040F21C41C4F202018A4246D0B0
:1002400040F23041C4F202018A4244D14FF480733B
:10025000CCF8003458E0042181630121084680BDB8
:100260004321C4F202018A420EDD6B21C4F2020175
:100270008A421BDC4421C4F202018A4239D058214F
:10028000C4F202018A4231E00821C4F202018A422A
:1002900032D01C21C4F202018A4232D03021C4F291
:1002A00002018A4222D14FF480722BE06C21C4F209
:1002B00002018A4222D08021C4F202018A4215D171
:1002C0004FF080721EE00123CCF800341CE01023B4
:1002D000CCF8003418E00CF588614FF480338A4282
:1002E00008BF4FF48053CCF800340DE04FF4803257
:1002F00008E04FF4805205E0012203E04FF4801241
:1003000000E01022CCF80020012180F82110426B7F
:10031000002180F820100AB190470021084680BDD6
:100320002DE9F04F82B0D1F800C0BCF1000F00F011
:10033000EC80A0F1804241F60045A2F58432C4F27F
:10034000010540F2004E4FEAB2240627A842C4F24B
:10035000010E08BF0527052C4FF000044FF00108DF
:100360004FF00F034FF0000A4FF0000B38BF4FEA79
:10037000B22700970AE000BFD1F800C00AF1010AD5
:100380003CFA0AF204F1040400F0BF8008FA0AF90A
:100390001CEA090FF0D04E684FF6FF72C1F210024E
:1003A000964211DC122E51D8DFE806F0340A42469C
:1003B00050505050505050505050505050494D0097
:1003C000D1F80CB042E000BF4FF6FF72C1F221023B
:1003D00096420FDC0022C1F2110296421AD000228E
:1003E000C1F21202964215D00022C1F221029642B9
:1003F00010D02BE00022C1F2220296420AD0002245
:10040000C1F23102964205D00022C1F23202964278
:100410001CD100BF8A6842B1012A14BFC0F81490F1
:10042000C0F810904FF0080B10E04FF0040B0DE0F7
:10043000CA6802F1080B09E04FF0000B06E0CA6839
:1004400002F1040B02E0CA6802F10C0B22460646D8
:10045000BAF1080F24BF203A0436376803FA02F5D0
:10046000AF430BFA02F23A433260CA79D2067FF503
:1004700083AF41F21807C4F202073A684FF6084307
:1004800042F001023A603A68CFF6FF7302F00102CF
:100490000192019A2AF0030272440F25D75804F002
:1004A0000C06B540AF43009D05FA06F63743D7501A
:1004B0004E6840F20C45F202DEF8082054BF22EAF2
:1004C000090242EA0902CEF80820C4F201052A68AE
:1004D000B70254BF22EA090242EA09022A60DEF8A2
:1004E0000420B70354BF22EA090242EA0902CEF807
:1004F00004200F23DEF80020F70354BF22EA09028C
:1005000042EA0902CEF8002036E702B0BDE8F08FDB
:10051000002A08BF090401617047000040F2501032
:10052000C2F200000068704740F2100040F2501123
:10053000C2F20000C2F2000100780A6810440860AC
:100540007047000080B542F20000C4F2020001686A
:1005500041F010010160032000F08AF80F2000F044
:1005600005F800F027F8002080BD000070B540F2CB
:100570001006C2F2000640F21C013278C2F20001FD
:100580004FF47A730968B3FBF2F20446B1FBF2F15F
:10059000084600F04DFB0F2C4FF0010508D838B984
:1005A0004FF0FF3021460022002500F035F874603E
:1005B000284670BD82B041F21800C4F20200016802
:1005C000022241F001010160016801F00101019185
:1005D0000199416841F080514160406800F08050CD
:1005E000009000980420C4F20100016862F31A61CF
:1005F000016002B070470000002848BF704700F05B
:100600001F01012202FA01F14EF200124009CEF25E
:10061000000242F82010704710B54EF60C5CCEF286
:10062000000CDCF80030C3F3022E8EF00704042C1B
:1006300028BF0424BEF103034FF0FF3E0EFA04F47A
:1006400038BF0023A14399400EFA03F39A4300F008
:100650000F03043B1143634409010C3300F1604272
:10066000B0F1FF3FC8BF02F56443197010BD000030
:100670004EF60C51CEF200010A684FF6FF031A4005
:1006800060F30A2242F0806040F0FD70086070471D
:100690002DE9F04381B0002800F0838042F2000889
:1006A000C4F202080446D8F800000D4600F0070026
:1006B00088420CD2D8F8000020F007002843C8F880
:1006C0000000D8F8000000F00700A84269D12068B7
:1006D00041F204098107C4F2020917D5410705D583
:1006E000D9F8001041F4E061C9F80010010705D500
:1006F000D9F8001041F46051C9F80010D9F8001081
:10070000A26821F0F0011143C9F80010C00741D1DF
:10071000D8F8000000F00700A8420CD9D8F8000073
:1007200020F007002843C8F80000D8F8000000F0C7
:100730000700A84235D12068410707D5D9F8001035
:10074000E26821F4E0611143C9F80010000708D500
:10075000D9F80000216920F4605040EAC100C9F8CE
:100760000000D9F8002002F00C00082841F2002017
:10077000C0F27A004BD142F6C003C2F38341C0F607
:100780000003595CD20336D440F60010C0F23D009D
:1007900048433CE06068012807D159F8041C8903EC
:1007A0000CD4012001B0BDE8F08359F8041C0228E4
:1007B00002D18901F5D501E08907F2D5D9F80010F9
:1007C00021F003010843C9F80000FFF7A7FE064621
:1007D00041F28837D9F80000616800F00C00B0EBF6
:1007E000810F95D0FFF79AFE801BB842F2D9032003
:1007F00001B0BDE8F083D9F8002042F6BE03C2F391
:100800004042C0F600039A5C4843B0FBF2F0D9F8CE
:10081000001042F6A602C1F30311C0F60002515CBB
:1008200040F21C0220FA01F140F21400C2F2000072
:100830000068C2F200021160FFF798FE002001B0CC
:10084000BDE8F08340F21C0041F20401C2F2000056
:10085000C4F202010068096842F6B602C1F302213F
:10086000C0F60002515CC8407047000040F21C0016
:1008700041F20401C2F20000C4F2020100680968FA
:1008800042F6B602C1F3C221C0F60002515CC84074
:10089000704700002DE9F04182B0002867D004467F
:1008A000007841F20006C007C4F2020624D0706846
:1008B00000F00C0004281AD0706800F00C00082822
:1008C00002D17068C00312D46068002800F0418132
:1008D000B0F5803F07D03168B0F5A02F40F06E81B1
:1008E00041F480203060306840F480306CE1306842
:1008F000800301D56068D0B32078800718D5706870
:1009000010F00C0F07D0706800F00C00082856D1CA
:100910007068C00353D43068800702D5206901286D
:1009200025D13068616920F0F80040EAC1003060EC
:10093000207800071FD42078400731D4E56995B1AD
:10094000706800F00C00082840F08B80012D0ED05C
:100950007068216A00F480328A4208D1616A00F42A
:100960007010884203D1002002B0BDE8F081012060
:1009700002B0BDE8F081A069B8B30020C4F2422003
:100980000121C0F88014FFF7C9FD0546706A800791
:1009900000F18A80FFF7C2FD401B0228F6D920E152
:1009A000F069C00033D4F0694FF0010840F0805086
:1009B000F061F06900F080500090009829E0206913
:1009C000002840F20000C4F2422000F0978001218C
:1009D0000160FFF7A3FD054630688007A1D4FFF74B
:1009E0009DFD401B0228F7D9FBE00020C4F2422005
:1009F0000021C0F88014FFF791FD0546706A80075A
:100A000099D5FFF78BFD401B0228F7D9E9E04FF09D
:100A1000000847F20007C4F200073868C00510D488
:100A2000386840F480703860FFF778FD054600BFF5
:100A30003868C00505D4FFF771FD401B6428F7D95D
:100A4000CFE0E06800286BD0012806D0316A052885
:100A500040F0968041F004003062306A40F00100BE
:100A600094E00027C4F2422700203866FFF756FDC5
:100A7000022D05460CD100BF3068800140F1B580E1
:100A8000FFF74CFD401B02284FF00300F4D96BE741
:100A9000306880017FF567AFFFF740FD401B0228FB
:100AA0004FF00300F4D95FE740F21C00C2F20000EF
:100AB000006844F6D351C1F26201A0FB0101480A6B
:100AC000019000BF00BF0198411E002801913FF432
:100AD00032AF00BF0198411E002801913FF42BAFB7
:100AE00000BF0198411E002801913FF424AF00BFD0
:100AF0000198411E00280191E4D11CE7002101600A
:100B0000FFF70CFD054600BF306880077FF510AF8A
:100B1000FFF704FD401B02284FF00300F4D923E740
:100B2000306A20F001003062306A20F00400306248
:100B3000FFF7F4FC054641F2883700BF306A8007B2
:100B400033D5FFF7EBFC401BB8424FF00300F5D95B
:100B50000AE7306820F480303060306820F480206C
:100B60003060FFF7DBFC0546306880037FF5C4AEDC
:100B7000FFF7D4FC401B64284FF00300F4D9F3E6E0
:100B800021F001003062306A20F004003062FFF78B
:100B9000C5FC054641F28837306A800705D4FFF767
:100BA000BDFC401BB842F7D91BE0B8F1000F3FF481
:100BB000C5AEF06920F08050F061BFE621F48030CE
:100BC0003060306820F480203060FFF7A7FC0546D5
:100BD000306880033FF590AEFFF7A0FC401B64280F
:100BE000F6D9032002B0BDE8F081206AB0F5803F5D
:100BF00005D17168A26821F40031114371607168F8
:100C0000626A21F474111043084370600120386651
:100C1000FFF784FC044600BF306880013FF5A3AEB7
:100C2000FFF77CFC001B02284FF00300F4D99BE681
:100C3000411E0020B0EB116F1CBF012070474EF227
:100C40001002CEF2000251604EF62351CEF20001A6
:100C5000F0230B700721906011607047704700000F
:100C60007047000010B590F83C20012A4FF00202B6
:100C700041D0012380F83C3080F83D200268D2F852
:100C800004E0D2F808C00C682EF07003234340F64D
:100C9000FF34C4F20004A24253600FDCB2F1804F73
:100CA0001ED040F20043C4F200039A4218D040F62E
:100CB0000003C4F200039A4212D016E040F600434B
:100CC000C4F200039A420BD043F20043C4F2010382
:100CD0009A4205D042F60043C4F201039A4204D17D
:100CE00049682CF08003194391600121002280F8AB
:100CF0003D1080F83C20104610BD0000002804BFC5
:100D00000120704710B5044690F83D0028B9002036
:100D100084F83C00204600F083F8022084F83D006F
:100D2000206840F6FF330268C4F2000343F2004C2F
:100D30009842C4F2010C20DCB0F1804F2BD040F27D
:100D40000041C4F20001884225D040F60001C4F2FF
:100D5000000188421FD0984223DCB0F1804F2ED092
:100D600040F20041C4F20001884228D040F6000160
:100D7000C4F20001884222D025E040F60041C4F2CE
:100D80000001884207D0604505D042F60041C4F218
:100D900001018842DFD1A16822F070020A43984223
:100DA000DBDD40F60041C4F20001884207D0604517
:100DB00005D042F60041C4F20101884203D1216905
:100DC00022F440720A43A36922F08001D4F804E0BF
:100DD000E268194360450160C262C0F828E005D0AE
:100DE00042F60041C4F20101884201D16169016308
:100DF00001214161002084F8461084F83E1084F8F7
:100E00003F1084F8401084F8411084F8421084F8B0
:100E1000431084F8441084F8451084F83D1010BD48
:100E200080B582B00068B0F1804F1CBF02B080BDB9
:100E300041F21C00C4F202000168002241F00101ED
:100E400001600068012100F00100019001981C2060
:100E5000FFF7E2FB1C2002B0BDE88040FFF7CCBBEF
:100E600090F83D1001291CBF01207047022180F835
:100E70003D10006840F6FF32C168C4F200029042A3
:100E800041F00101C1600FDCB0F1804F1ED040F293
:100E90000041C4F20001884218D040F60001C4F2BB
:100EA0000001884212D018E040F60041C4F200016F
:100EB00088420BD043F20041C4F20101884205D0C0
:100EC00042F60041C4F20101884206D1816801F076
:100ED0000701062904BF00207047016841F00101A5
:100EE000016000207047000080B590F83C20012A86
:100EF0004FF0020200F0C280012380F83C3080F8FD
:100F00003D20D0F800C04FF67772DCF8083023EAB5
:100F10000202CCF808200B684F2B28DC1F2B43DD86
:100F2000202B44D0302B42D0402B40F0A980D1F868
:100F300004E0C968DCF82030DCF8202022F001024F
:100F4000CCF82020DCF8182022F0F00242EA01114F
:100F500023F00A0242EA0E02CCF81810CCF8202046
:100F6000DCF8081041F0470121F030017DE06F2BE3
:100F700025DDB3F5005F46D0B3F5805F77D0702BE9
:100F80007ED1D1E901E3C968DCF8082043EA0E0309
:100F900022F47F4243EA01211143CCF80810DCF827
:100FA000081041F0770160E00BB1102B68D1DCF83C
:100FB000081021F07001194341F0070155E0502B52
:100FC00034D0602B5CD1D1F804E0C968DCF8203063
:100FD000DCF8202022F01002CCF82020DCF81820C9
:100FE00022F4704242EA013123F0A00242EA0E12DA
:100FF000CCF81810CCF82020DCF8081041F067017C
:1010000021F0100131E0D1E901E3C968DCF80820E2
:1010100043EA0E0322F47F4243EA01211143CCF854
:101020000810DCF8081041F480411EE0D1F804E01B
:10103000C968DCF82030DCF8202022F00102CCF86E
:101040002020DCF8182022F0F00242EA011123F0FF
:101050000A0242EA0E02CCF81810CCF82020DCF884
:10106000081041F0570121F02001CCF808100022AF
:10107000012180F83D10002180F83C10104680BD11
:101080000122F5E77047000010B5016804460869C1
:10109000800744BFC8685FEA807038D40869400799
:1010A00044BFC8685FEA40703DD40869000744BF88
:1010B000C8685FEA007043D40869C00644BFC868C6
:1010C0005FEAC06048D40869C0071CBFC8685FEA0F
:1010D000C0704ED10869000644BFC8685FEA00606E
:1010E0004FD40869400644BFC8685FEA406050D4E6
:1010F0000869800646BFC8685FEA806010BD6FF06F
:10110000200220460A61BDE81040FFF7A9BD6FF03C
:1011100002000861012020778869800741D02046BD
:10112000FFF7B0FF43E06FF0040008610220207772
:10113000886910F4407F3ED02046FFF7A3FF40E0CF
:101140006FF00800086104202077C86980073CD050
:101150002046FFF797FF3EE06FF01000086108207F
:101160002077C86910F4407F39D02046FFF78AFF06
:101170003BE06FF001000861204600F03FF8216875
:10118000A8E76FF0800008612046FFF767FD21683F
:10119000A7E76FF040000861204600F069F8216879
:1011A000A6E7204600F026F8204600F025F8216842
:1011B0000020207772E7204600F01CF8204600F05F
:1011C0001BF82168002020776FE7204600F012F816
:1011D000204600F011F82168002020776CE72046B7
:1011E00000F008F8204600F007F82168002020777A
:1011F00069E70000704700007047000010B540F23A
:101200007804C2F20004A04218BF10BD40F22900C9
:10121000C2F20000007830B140F25000C2F200008B
:1012200001680131016000F08DFE40F21800C2F249
:101230000000018819B101390A04018004D0206836
:101240006FF00101016110BD40F24200C2F20000E6
:10125000018841F40041018040F22800C2F2000000
:101260000121018020686FF00101016110BD0000C3
:10127000704700007047000070470000F0B581B073
:10128000044600680168C268456901F02F03202BFD
:1012900002F0200306D12BB1204601B0BDE8F0409A
:1012A00000F082BF5FEA017C07D005F0010E12F466
:1012B000907F8EF001052FD175B3236B1140CA06C4
:1012C00018D5012B16D100210091016800914168C9
:1012D000009100994169490600F18481A18DE28D58
:1012E000E38D002B1CBF891A5FEA014240F0FD80AC
:1012F00001B0F0BD0A0600F12E824906F8D5C1689A
:1013000021F04001C1602021204684F8411001B045
:10131000BDE8F04000F026BDCE0718BF12F480767D
:1013200003D0666C46F00106666401F004070126EE
:1013300086EA97072F4303D1676C47F0020767647B
:1013400001F0020786EA5706354303D1656C45F084
:101350000405656453EA0E0318BF0123BCF1000FB6
:1013600004D51BB1636C43F008036364636C002B0A
:10137000BED01140890603D5204600F015FF206835
:101380004169626C01F0400102F00802891800F026
:10139000F38100BF50E8030F216820F4907041E80A
:1013A0000302C2B3206850E8030F216820F4907054
:1013B00041E803027AB3206850E8030F216820F463
:1013C000907041E8030232B3206850E8030F2168AF
:1013D00020F4907041E80302EAB12068DAE700BF28
:1013E000206850E8050F216820F0010041E805025F
:1013F000DAB1206850E8050F216820F0010041E8CB
:10140000050292B1206850E8050F216820F0010024
:1014100041E805024AB1206850E8050F216820F034
:10142000010041E80502002ADAD1206B012824D10D
:10143000206850E8030F216820F0100041E8030203
:10144000DAB1206850E8030F216820F0100041E86D
:10145000030292B1206850E8030F216820F01000C9
:1014600041E803024AB1206850E8030F216820F0E8
:10147000100041E80302002ADAD1202084F842005B
:101480000020206320684169490640F18E8150E8C0
:10149000050F216820F0400041E80502002A00F015
:1014A0007281206850E8050F216820F0400041E873
:1014B0000502002A00F06781206850E8050F2168C6
:1014C00020F0400041E80502002A00F05C8120681D
:1014D00050E8050F216820F0400041E80502002A8D
:1014E00000F051812068D2E7206850E8030F22689D
:1014F00020F4907042E80303BBB3206850E8030F68
:10150000226820F4907042E8030373B3206850E827
:10151000030F226820F4907042E803032BB3206885
:1015200050E8030F226820F4907042E80303002B78
:10153000DAD11AE0206850E8050F226820F0010097
:1015400042E80503DBB1206850E8050F226820F06F
:10155000010042E8050393B1206850E8050F2268B6
:1015600020F0010042E805034BB1206850E8050F68
:10157000226820F0010042E80503002BDAD1202088
:1015800084F8420000202063206850E8030F22689E
:1015900020F0100042E80303DBB1206850E8030F9D
:1015A000226820F0100042E8030393B1206850E85D
:1015B000030F226820F0100042E803034BB12068BB
:1015C00050E8030F226820F0100042E80303002BCC
:1015D000DAD1022289B22046626301B0BDE8F04050
:1015E000FFF748BEE26B11684B689EB2002E3FF4D5
:1015F0007FAEA18D8E42BFF47BAEE3859269202A37
:1016000000F09E8050E8030F216820F4807041E8CC
:101610000302E2B1206850E8030F216820F48070D3
:1016200041E803029AB1206850E8030F216820F4D2
:10163000807041E8030252B1206850E8030F21682E
:1016400020F4807041E803020AB12068DAE72068DC
:1016500050E8050F216820F0010041E80502BAB307
:10166000206850E8050F216820F0010041E80502DC
:1016700072B3206850E8050F216820F0010041E8AE
:1016800005022AB3206850E8050F216820F0010008
:1016900041E80502002ADAD11AE0206850E8050F77
:1016A000216820F0400041E80502DAB1206850E8E6
:1016B000050F216820F0400041E8050292B1206842
:1016C00050E8050F216820F0400041E805024AB1CA
:1016D000206850E8050F216820F0400041E805022D
:1016E000002ADAD1202084F84200002020632068FC
:1016F00050E8030F216820F0100041E80302DAB13E
:10170000206850E8030F216820F0100041E8030230
:1017100092B1206850E8030F216820F0100041E8E2
:1017200003024AB1206850E8030F216820F010003E
:1017300041E80302002ADAD1E06BFEF73BFDA18D00
:1017400002206063E08D081A81B2204601B0BDE836
:10175000F040FFF78FBD94F8411021297FF4C8AD08
:10176000A168B1F5805F01D1216921B3216A4A1CCA
:1017700022620978416025E02046FFF77DFD0020C8
:10178000606401B0F0BDE06B78B142F29D11C0F62B
:1017900000014163FEF732FD00283FF4A9ADE06B84
:1017A000416B01B0BDE8F0400847204601B0BDE8FC
:1017B000F040FFF761BD216A31F8022B6FF35F2221
:1017C00042602162E18C01390A04E1847FF490AD2A
:1017D000C16821F08001C160C16841F04001C16071
:1017E00001B0F0BD002804BF0120704710B50446C9
:1017F00090F8410028B9002084F84000204600F00D
:101800005FF8242084F841002068D4E90212C368FC
:1018100023F40053C360036923F440531A43026165
:10182000D4E904231143C268194341F20C639A437B
:101830001143C1604169A26921F44071114343F62B
:101840000002C4F201029042416102D0FEF7FAFFA9
:1018500001E0FFF70BF86268192148439100B0FBE3
:10186000F1F048F21F51C5F2EB11A0FB01235A0918
:101870006FF0630302FB0300322303EB0010A0FBB5
:101880000101F02303EA5113206803EB0212C1F3B4
:10189000431111448160016921F490410161416962
:1018A00021F02A014161C16841F40051C16000206A
:1018B0002021606484F8411084F84210606310BDF8
:1018C000B0B586B0006844F2004140F60004C4F2AE
:1018D0000001C4F2010488424FF00001CDE9041177
:1018E000CDE902112BD043F60001C4F20101884278
:1018F00057D141F21800C4F20200016841F480415E
:101900000160016801F4804101910199016841F091
:1019100004010160006802A900F004000190019830
:101920004FF400700290022003900320059020469F
:10193000FEF7F6FC4FF480600290252522E041F28C
:101940001800C4F20200416841F40031416041686E
:1019500001F4003101910199016841F00401016035
:10196000006802A900F00400019001980420029090
:1019700002200390032005902046FEF7D1FC0820AA
:10198000262502900020CDE9030002A92046FEF79B
:10199000C7FC284600210022FEF73EFE2846FEF73F
:1019A0002BFE06B0B0BD000090F84230202B1CBFCB
:1019B0000220704700294FF0010318BF002A01D10F
:1019C0001846704700230363816222218285C28505
:1019D000436480F842100169006819B1C16841F49C
:1019E0008071C1604169002341F001014161C1681A
:1019F00041F02001C16018467047000040F2C0016C
:101A0000C2F2000188421AD040F27601C2F200010F
:101A10000A88092A2DD840F23103C2F2000393F854
:101A200000C040F25403C2F2000303F802C00132C6
:101A30000A8040F21A01C2F200010F221BE040F2BC
:101A40004200C2F20000018813291CD840F2300283
:101A5000C2F20002127840F26203C2F200035A544A
:101A60000131018040F21800C2F200000F21018014
:101A700012E042F400420A8040F23101C2F2000159
:101A80000122FFF791BF41F40041018040F228009C
:101A9000C2F200000121017040F2C00040F23001AA
:101AA000C2F20000C2F200010122FFF77DBF000078
:101AB0002DE9F041044690F8410020281CBF022087
:101AC000BDE8F0810F4600294FF0010000F0DC80F6
:101AD0001646002A08BFBDE8F0814FF0000821201B
:101AE0001D46C4F8448084F84100FEF717FDA68423
:101AF000E684A1680646B1F5805F05D1206900281B
:101B000014BF3846B8460746E28C2068016812B315
:101B10006A1C47D0002D00F0C78000BF090609D419
:101B2000FEF7FCFC801BA84200F2C680206801681A
:101B30000906F5D517B117F8011B04E038F8021BA8
:101B400000276FF35F214160E18C0139E184E28C71
:101B50000168002AE2D1490611D4002D40D0691C49
:101B600038D100BF016849065CBF01685FEA416186
:101B700005D40168490602D401684906F2D520203F
:101B800084F841000020BDE8F08138F8021B0027EE
:101B90006FF35F214160E18C0139E184E28C0168DF
:101BA000002AD8D009065FBF01685FEA01610168B9
:101BB0005FEA016104D40168090601D40168F1E714
:101BC000002FE2D017F8011BE4E700BF206800688F
:101BD0004006D4D4FEF7A2FC801BA842F6D900BF71
:101BE000206850E8030F216820F4D07041E8030218
:101BF000BAB3206850E8030F216820F4D07041E8A0
:101C0000030272B3206850E8030F216820F4D070FB
:101C100041E803022AB3206850E8030F216820F44A
:101C2000D07041E80302002ADAD11AE0206850E8B7
:101C3000050F216820F0010041E80502DAB12068B3
:101C400050E8050F216820F0010041E8050292B13B
:101C5000206850E8050F216820F0010041E80502E6
:101C60004AB1206850E8050F216820F0010041E8E2
:101C70000502002ADAD1202084F8410084F84200CD
:101C8000002084F840000320BDE8F08138F8021BF2
:101C900000276FF35F214160E18C0139E184E28C20
:101CA0000168002A3FF457AF090605D5002FEDD093
:101CB00017F8011BEFE700BF206850E8030F216809
:101CC00020F4D07041E80302BAB3206850E8030F53
:101CD000216820F4D07041E8030272B3206850E814
:101CE000030F216820F4D07041E803022AB3206872
:101CF00050E8030F216820F4D07041E80302002A65
:101D0000DAD11AE0206850E8050F216820F00100C0
:101D100041E80502DAB1206850E8050F216820F09B
:101D2000010041E8050292B1206850E8050F2168E2
:101D300020F0010041E805024AB1206850E8050F93
:101D4000216820F0010041E80502002ADAD12020B4
:101D500084F8410084F84200002084F84000032009
:101D6000BDE8F08170470000FEE700002DE9F04774
:101D700084B041F21800C4F20200016841F200048C
:101D800041F0200101600168C4F2010401F020016A
:101D9000009100990168002241F010010160016882
:101DA0004FF0000801F0100100910099016841F026
:101DB000040101600068032100F004000090009815
:101DC0002046FEF7A5FB20464FF440710122012773
:101DD000FEF79EFBA4F5006528464FF480710122B2
:101DE0004FF48079FEF794FB40F201206E46CDE976
:101DF00000074FF0020A204631460297CDF80CA0AA
:101E0000FEF78EFA4FF481708DE881052046314649
:101E1000FEF786FA28463146CDE90097CDE9027AE9
:101E2000FEF77EFA04B0BDE8F087000080B586B00A
:101E300040F278000021C2F200004FF080424723B8
:101E400040F2E73CCDE90411CDE90211CDE90011E2
:101E5000C0E90023C0E9021C016180218161FEF715
:101E60004DFF002818BFFEF795F94FF480500290FF
:101E700040F27800C2F2000002A9FFF735F800280E
:101E800018BFFEF787F90020CDE9000040F2780086
:101E9000C2F200006946FEF7E5FE002818BFFEF713
:101EA00079F906B080BD000080B540F2C00043F66D
:101EB0000001C2F20000C4F2010100234FF00C0C3B
:101EC0004FF4614280E80E00C0E90333C0E905C366
:101ED000C361FFF787FC002808BF80BDBDE88040D4
:101EE000FEF758B980B540F2081044F20041C2F242
:101EF0000000C4F2000100234FF00C0C4FF4165206
:101F000080E80E00C0E90333C0E905C3C361FFF7F1
:101F100069FC002808BF80BDBDE88040FEF73AB9E3
:101F2000FEE70000FEE70000704700007047000079
:101F3000FEF7FABA7047000040F27800C2F20000E3
:101F4000FFF7A2B840F20000C2F20000018819B108
:101F500001390A0401800ED08188B9B101390A041F
:101F6000818013D11421818040F22801C2F2000146
:101F700001220A740AE00A21018040F22801C2F21B
:101F8000000101220A7381880029E7D1018919B172
:101F900001390A0401810FD0818961B101390A0434
:101FA000818118BF70470A21818140F22800C2F266
:101FB00000000121017670471421018140F22801BF
:101FC000C2F2000101220A7581890029E6D1F2E7F7
:101FD00080B540F22801C2F20001FF2001F8300F65
:101FE00001F82B0C40F22000C2F2000031F812CCB4
:101FF0000078CCF3032202EB8000103080F0AC02BA
:10200000D3B24FF0310E01F82A0C48708EEA43002B
:10201000120601F829CC81F802C058BF58008EEA98
:102020004002030658BF42008EEA4200130658BF22
:1020300050008EEA4002030658BF42008EEA42007A
:10204000130658BF50008EEA4002030658BF4200F4
:102050008EEA4200130658BF50008EEA4002030683
:1020600058BF42008CEA0200C2B28EEA4203000668
:1020700058BF53008EEA43001A0658BF58008EEA34
:102080004002030658BF42008EEA4200130658BFC2
:1020900050008EEA4002030658BF42008EEA42001A
:1020A000130658BF50008EEA4002030658BF420094
:1020B0008EEA4200130658BF5000C87040F2081064
:1020C000C2F2000004224FF47A7321F814CCBDE868
:1020D0008040FFF7EDBC000080B582B040F22800E0
:1020E000C2F20000417881B3816A40F214529142F9
:1020F00015D800208DF8070042F2FF00CAF20160F7
:10210000CDF8030040F20810C2F200000DF1030107
:1021100004224FF47A73FFF7CBFC02B080BD00219C
:102120004170816242F2FF00CDF60D30CDF8030020
:1021300040F208108DF80710C2F200000DF1030103
:1021400004224FF47A73FFF7B3FC02B080BD0000A5
:1021500010B540F22804C2F200042078002808BF1D
:1021600010BDEFF3108072B600F0AAF8207928B104
:10217000A078E17800F006FB002020710020C4F870
:102180004A00C4F84600C4F84200C4F83E00C4F84F
:102190003A006083207062B610BD0000406A0021E2
:1021A000C185C184FFF768B881B090F84210222938
:1021B00020D18368B3F5805F08D10169002964D01C
:1021C00000F128010A6803685B680AE0014651F8DB
:1021D000282F13B90369002BF5D003685B6803F05F
:1021E0007F0313700A6801320A60C18D01390A0445
:1021F000C18501D001B070470168CA6822F0200291
:10220000CA60CA6822F48072CA604A6922F0010278
:102210004A61202280F8422000224263036B012B96
:102220003CD1026351E8031F026821F0100142E82B
:1022300003130168DBB151E8031F026821F01001AC
:1022400042E80313016893B151E8031F026821F0CB
:10225000100142E8031301684BB151E8031F026803
:1022600021F0100142E803130168002BDAD10A685B
:10227000D20606D5002200920A68009249680091B1
:102280000099818D01B0FEF7F5BF0168826A496847
:102290006FF35F2122F8021B8262A6E701B0FFF70D
:1022A000ADBB000040F2C000C2F20000FEF7E6BF86
:1022B00040F20810C2F20000FEF7E0BFFEE70000A7
:1022C000F0B581B040F22805C2F2000595F83A0059
:1022D0000C2840F0888095F83B000C2800F08A809C
:1022E0000B2800F0FF800A287DD1E88F95F83D701B
:1022F000000401BA95F83C002984C2074FF6C332A6
:1023000008BF45F6C23282EA50034AF2010282EA6D
:102310005306DC0708BF5E0882EA5603F40708BFCD
:10232000730882EA5306DC0708BF5E0882EA560398
:10233000F40708BF730882EA5306DC0708BF5E088B
:1023400082EA5603F40708BF730882EA5306DC07E3
:1023500008BF5E0886EA070382EA5306DC0708BF67
:102360005E0882EA5603F40708BF730882EA530640
:10237000DC0708BF5E0882EA5603F40708BF73084B
:1023800082EA5306DC0708BF5E0882EA5603F407B8
:1023900008BF730882EA5306DC0708BF5E0882EABA
:1023A0005602F30708BF720893B299426A8440F05C
:1023B0000281032800F02681022840F03381012F9A
:1023C0004FF0000203D0002F40F02D81012240F693
:1023D0000000C4F2010000F500604FF40071FEF748
:1023E00097F802221FE10020A87095F83D00E870E0
:1023F00001B0F0BDE88F95F83C100004CA0700BAA0
:102400004FF68322288495F83D6008BF45F6822266
:1024100082EA51024AF2010181EA5203D70708BF5A
:10242000530881EA5302DF0708BF5A0881EA5203C2
:10243000D70708BF530881EA5302DF0708BF5A08CD
:1024400081EA5203D70708BF530881EA5302DF0726
:1024500008BF5A0881EA5203D70708BF530883EA26
:10246000060281EA5203D70708BF530881EA5302E4
:10247000DF0708BF5A0881EA5203D70708BF53088D
:1024800081EA5302DF0708BF5A0881EA5203D707DF
:1024900008BF530881EA5302DF0708BF5A0881EAE0
:1024A0005203D70708BF530881EA5301DA0708BF70
:1024B00059088AB29042698440F0808040F6000456
:1024C000C4F2010404F500604FF4007101220126FA
:1024D000FEF71EF820464FF480710122FEF718F82F
:1024E00005206CE0E88F95F83C1047F24573000436
:1024F00081EA03074AF2010302BA83EA57062A84F3
:1025000095F83D00FC0708BF7E0883EA5607F407EC
:1025100008BF770883EA5706FC0708BF7E0883EAEE
:102520005607F40708BF770883EA5706FC0708BF79
:102530007E0883EA5607F40708BF770883EA570640
:10254000FC0708BF7E0883EA5607F40708BF770830
:10255000474083EA5706FC0708BF7E0883EA560710
:10256000F40708BF770883EA5706FC0708BF7E0810
:1025700083EA5607F40708BF770883EA5706FC0783
:1025800008BF7E0883EA5607F40708BF770883EA86
:102590005706FC0708BF7E0883EA5603F70708BF03
:1025A00073089FB2BA426B840FD1AF2916DC0129A0
:1025B0003FD0A02920E00020A87035E00020A870BE
:1025C000EE700120287101B0F0BD40F22000C2F28F
:1025D000000000210170E98301B0F0BDB0292ED0C8
:1025E000C02909D140F22001C2F20001012200EB12
:1025F00080000A70400029E040F22000C2F2000092
:10260000032121E0012F4FF0000201D05FB9012228
:1026100040F60000C4F201004FF48071FDF778FF2E
:10262000032200E00022AA70EF700120287101B09F
:10263000F0BD012068700020A86201B0F0BD40F23A
:102640002000C2F20000022101700020E88301B0E6
:10265000F0BD000090B0FDF775FF002401204FF49D
:102660008031CDE90B44CDE909440690CDE907144A
:102670000A9002254FF4E010CDE90D510F9006A805
:102680000594CDE90344CDE90144FEF703F920B1F7
:10269000EFF3108072B600BFFEE70F20CDE9010511
:1026A0004FF480600394CDE9040401A80221FDF7F2
:1026B000EFFF20B1EFF3108072B600BFFEE7FFF727
:1026C00055FBFFF7B3FBFFF7EFFBFFF70BFC40F207
:1026D000280641F20005C2F20006C4F201050027F7
:1026E000344628464FF40071012204F8087BFDF7B8
:1026F0000FFF284601210022FDF70AFFA5F5006023
:102700004FF480710122FDF703FF40F2C000C2F2D6
:10271000000021460122FFF747F940F2081006F1B8
:102720000901C2F200000122FFF73EF940F27800F1
:10273000C2F2000001686FF001020A61FEF790FB2F
:10274000FDF72EFD04E000BF307E012808BF37767C
:10275000307B012806D0307C012809D0307D01284B
:10276000F2D10BE0FFF7F4FC3773307C0128F5D190
:10277000FFF7B2FC3774307D0128E5D1FFF728FC64
:102780003775E1E780B582B0002240F2280CADF841
:1027900006200C22C2F2000C8DF803209CF82C308D
:1027A0009CF82D208DF804001A4002EB82025200A2
:1027B000CCF8242044F2BF5242404AF2010C8CEA89
:1027C0005203D0078DF8051008BF53088CEA530058
:1027D000DA0708BF58088CEA5002C30708BF42084E
:1027E0008CEA5200D30708BF50088CEA5002C30796
:1027F00008BF42088CEA5200D30708BF50088CEA91
:102800005002C30708BF42088CEA5200D30708BF32
:10281000500848408CEA5001C20708BF41088CEAC2
:102820005100CA0708BF48088CEA5001C20708BF18
:1028300041088CEA5100CA0708BF48088CEA5001D9
:10284000C20708BF41088CEA5100CA0708BF480800
:102850008CEA5001C20708BF41088CEA5100CA0740
:1028600008BF4808010A8DF8070040F2C0008DF843
:102870000610C2F200000DF1030105224FF47A7335
:10288000FFF716F902B080BD02E008C8121F08C1A8
:10289000002AFAD170477047002001E001C1121FE1
:1028A000002AFBD170470000000000000000010278
:1028B00003040607080900000000010203040102E6
:1028C00002030405060708090A0B0C0D0E0F101071
:1028D000F0280008000000202800000088280008D8
:1028E000182900082800002030050000982800085A
:1028F0000A00000014000000140000000A0000009C
:1029000001000000100000000F000F000024F40080
:082910000300000000000000BC
:0400000508000131BD
:00000001FF
